{
  "_format": "hh-sol-artifact-1",
  "contractName": "Record",
  "sourceName": "contracts/Record.sol",
  "abi": [
    {
      "inputs": [
        {
          "internalType": "string",
          "name": "_uri",
          "type": "string"
        }
      ],
      "stateMutability": "nonpayable",
      "type": "constructor"
    },
    {
      "anonymous": false,
      "inputs": [
        {
          "indexed": true,
          "internalType": "address",
          "name": "account",
          "type": "address"
        },
        {
          "indexed": true,
          "internalType": "address",
          "name": "operator",
          "type": "address"
        },
        {
          "indexed": false,
          "internalType": "bool",
          "name": "approved",
          "type": "bool"
        }
      ],
      "name": "ApprovalForAll",
      "type": "event"
    },
    {
      "anonymous": false,
      "inputs": [
        {
          "indexed": true,
          "internalType": "address",
          "name": "operator",
          "type": "address"
        },
        {
          "indexed": true,
          "internalType": "address",
          "name": "from",
          "type": "address"
        },
        {
          "indexed": true,
          "internalType": "address",
          "name": "to",
          "type": "address"
        },
        {
          "indexed": false,
          "internalType": "uint256[]",
          "name": "ids",
          "type": "uint256[]"
        },
        {
          "indexed": false,
          "internalType": "uint256[]",
          "name": "values",
          "type": "uint256[]"
        }
      ],
      "name": "TransferBatch",
      "type": "event"
    },
    {
      "anonymous": false,
      "inputs": [
        {
          "indexed": true,
          "internalType": "address",
          "name": "operator",
          "type": "address"
        },
        {
          "indexed": true,
          "internalType": "address",
          "name": "from",
          "type": "address"
        },
        {
          "indexed": true,
          "internalType": "address",
          "name": "to",
          "type": "address"
        },
        {
          "indexed": false,
          "internalType": "uint256",
          "name": "id",
          "type": "uint256"
        },
        {
          "indexed": false,
          "internalType": "uint256",
          "name": "value",
          "type": "uint256"
        }
      ],
      "name": "TransferSingle",
      "type": "event"
    },
    {
      "anonymous": false,
      "inputs": [
        {
          "indexed": false,
          "internalType": "string",
          "name": "value",
          "type": "string"
        },
        {
          "indexed": true,
          "internalType": "uint256",
          "name": "id",
          "type": "uint256"
        }
      ],
      "name": "URI",
      "type": "event"
    },
    {
      "inputs": [],
      "name": "allAssets",
      "outputs": [
        {
          "internalType": "string[]",
          "name": "",
          "type": "string[]"
        }
      ],
      "stateMutability": "view",
      "type": "function"
    },
    {
      "inputs": [],
      "name": "allDevidedAssets",
      "outputs": [
        {
          "internalType": "string[]",
          "name": "devidedAssets",
          "type": "string[]"
        }
      ],
      "stateMutability": "view",
      "type": "function"
    },
    {
      "inputs": [
        {
          "internalType": "uint256",
          "name": "",
          "type": "uint256"
        }
      ],
      "name": "assetRefs",
      "outputs": [
        {
          "internalType": "string",
          "name": "",
          "type": "string"
        }
      ],
      "stateMutability": "view",
      "type": "function"
    },
    {
      "inputs": [
        {
          "internalType": "string",
          "name": "",
          "type": "string"
        }
      ],
      "name": "assetShareTokens",
      "outputs": [
        {
          "internalType": "uint256",
          "name": "id",
          "type": "uint256"
        },
        {
          "internalType": "address",
          "name": "creator",
          "type": "address"
        },
        {
          "internalType": "enum Record.AssetShareTokenStatus",
          "name": "status",
          "type": "uint8"
        },
        {
          "internalType": "uint256",
          "name": "shares",
          "type": "uint256"
        },
        {
          "internalType": "string",
          "name": "metadataUri",
          "type": "string"
        }
      ],
      "stateMutability": "view",
      "type": "function"
    },
    {
      "inputs": [
        {
          "internalType": "address",
          "name": "_owner",
          "type": "address"
        },
        {
          "internalType": "string",
          "name": "_asserRef",
          "type": "string"
        }
      ],
      "name": "balance",
      "outputs": [
        {
          "internalType": "uint256",
          "name": "",
          "type": "uint256"
        }
      ],
      "stateMutability": "view",
      "type": "function"
    },
    {
      "inputs": [
        {
          "internalType": "address[]",
          "name": "_owners",
          "type": "address[]"
        },
        {
          "internalType": "string[]",
          "name": "_assetRefs",
          "type": "string[]"
        }
      ],
      "name": "balanceBatch",
      "outputs": [
        {
          "internalType": "uint256[]",
          "name": "",
          "type": "uint256[]"
        }
      ],
      "stateMutability": "view",
      "type": "function"
    },
    {
      "inputs": [
        {
          "internalType": "address",
          "name": "account",
          "type": "address"
        },
        {
          "internalType": "uint256",
          "name": "id",
          "type": "uint256"
        }
      ],
      "name": "balanceOf",
      "outputs": [
        {
          "internalType": "uint256",
          "name": "",
          "type": "uint256"
        }
      ],
      "stateMutability": "view",
      "type": "function"
    },
    {
      "inputs": [
        {
          "internalType": "address[]",
          "name": "accounts",
          "type": "address[]"
        },
        {
          "internalType": "uint256[]",
          "name": "ids",
          "type": "uint256[]"
        }
      ],
      "name": "balanceOfBatch",
      "outputs": [
        {
          "internalType": "uint256[]",
          "name": "",
          "type": "uint256[]"
        }
      ],
      "stateMutability": "view",
      "type": "function"
    },
    {
      "inputs": [
        {
          "internalType": "address",
          "name": "creator",
          "type": "address"
        },
        {
          "internalType": "address[]",
          "name": "_shareHolders",
          "type": "address[]"
        },
        {
          "internalType": "string",
          "name": "_assetRef",
          "type": "string"
        },
        {
          "internalType": "uint256[]",
          "name": "_amounts",
          "type": "uint256[]"
        },
        {
          "internalType": "bytes",
          "name": "_data",
          "type": "bytes"
        }
      ],
      "name": "devideAssetShares",
      "outputs": [],
      "stateMutability": "nonpayable",
      "type": "function"
    },
    {
      "inputs": [
        {
          "internalType": "address",
          "name": "account",
          "type": "address"
        },
        {
          "internalType": "address",
          "name": "operator",
          "type": "address"
        }
      ],
      "name": "isApprovedForAll",
      "outputs": [
        {
          "internalType": "bool",
          "name": "",
          "type": "bool"
        }
      ],
      "stateMutability": "view",
      "type": "function"
    },
    {
      "inputs": [
        {
          "internalType": "string",
          "name": "_assetRef",
          "type": "string"
        }
      ],
      "name": "metadataUri",
      "outputs": [
        {
          "internalType": "string",
          "name": "",
          "type": "string"
        }
      ],
      "stateMutability": "view",
      "type": "function"
    },
    {
      "inputs": [
        {
          "internalType": "string",
          "name": "_assetRef",
          "type": "string"
        },
        {
          "internalType": "string",
          "name": "_uri",
          "type": "string"
        }
      ],
      "name": "mintAssetShares",
      "outputs": [],
      "stateMutability": "nonpayable",
      "type": "function"
    },
    {
      "inputs": [
        {
          "internalType": "address",
          "name": "creator",
          "type": "address"
        }
      ],
      "name": "mintedAssetSharesBy",
      "outputs": [
        {
          "internalType": "string[]",
          "name": "mintedAssets",
          "type": "string[]"
        }
      ],
      "stateMutability": "view",
      "type": "function"
    },
    {
      "inputs": [
        {
          "internalType": "address",
          "name": "from",
          "type": "address"
        },
        {
          "internalType": "address",
          "name": "to",
          "type": "address"
        },
        {
          "internalType": "uint256[]",
          "name": "ids",
          "type": "uint256[]"
        },
        {
          "internalType": "uint256[]",
          "name": "amounts",
          "type": "uint256[]"
        },
        {
          "internalType": "bytes",
          "name": "data",
          "type": "bytes"
        }
      ],
      "name": "safeBatchTransferFrom",
      "outputs": [],
      "stateMutability": "nonpayable",
      "type": "function"
    },
    {
      "inputs": [
        {
          "internalType": "address",
          "name": "from",
          "type": "address"
        },
        {
          "internalType": "address",
          "name": "to",
          "type": "address"
        },
        {
          "internalType": "uint256",
          "name": "id",
          "type": "uint256"
        },
        {
          "internalType": "uint256",
          "name": "amount",
          "type": "uint256"
        },
        {
          "internalType": "bytes",
          "name": "data",
          "type": "bytes"
        }
      ],
      "name": "safeTransferFrom",
      "outputs": [],
      "stateMutability": "nonpayable",
      "type": "function"
    },
    {
      "inputs": [
        {
          "internalType": "address",
          "name": "operator",
          "type": "address"
        },
        {
          "internalType": "bool",
          "name": "approved",
          "type": "bool"
        }
      ],
      "name": "setApprovalForAll",
      "outputs": [],
      "stateMutability": "nonpayable",
      "type": "function"
    },
    {
      "inputs": [
        {
          "internalType": "string",
          "name": "_assetRef",
          "type": "string"
        }
      ],
      "name": "shareHoldersWithBalance",
      "outputs": [
        {
          "internalType": "address[]",
          "name": "",
          "type": "address[]"
        },
        {
          "internalType": "uint256[]",
          "name": "",
          "type": "uint256[]"
        }
      ],
      "stateMutability": "view",
      "type": "function"
    },
    {
      "inputs": [
        {
          "internalType": "bytes4",
          "name": "interfaceId",
          "type": "bytes4"
        }
      ],
      "name": "supportsInterface",
      "outputs": [
        {
          "internalType": "bool",
          "name": "",
          "type": "bool"
        }
      ],
      "stateMutability": "view",
      "type": "function"
    },
    {
      "inputs": [
        {
          "internalType": "address",
          "name": "_from",
          "type": "address"
        },
        {
          "internalType": "address",
          "name": "_to",
          "type": "address"
        },
        {
          "internalType": "string",
          "name": "_assetRef",
          "type": "string"
        },
        {
          "internalType": "uint256",
          "name": "_amount",
          "type": "uint256"
        },
        {
          "internalType": "bytes",
          "name": "_data",
          "type": "bytes"
        }
      ],
      "name": "transfer",
      "outputs": [],
      "stateMutability": "nonpayable",
      "type": "function"
    },
    {
      "inputs": [
        {
          "internalType": "address",
          "name": "_from",
          "type": "address"
        },
        {
          "internalType": "address",
          "name": "_to",
          "type": "address"
        },
        {
          "internalType": "string[]",
          "name": "_assetRefs",
          "type": "string[]"
        },
        {
          "internalType": "uint256[]",
          "name": "_amounts",
          "type": "uint256[]"
        },
        {
          "internalType": "bytes",
          "name": "_data",
          "type": "bytes"
        }
      ],
      "name": "transferBatch",
      "outputs": [],
      "stateMutability": "nonpayable",
      "type": "function"
    },
    {
      "inputs": [
        {
          "internalType": "uint256",
          "name": "",
          "type": "uint256"
        }
      ],
      "name": "uri",
      "outputs": [
        {
          "internalType": "string",
          "name": "",
          "type": "string"
        }
      ],
      "stateMutability": "view",
      "type": "function"
    }
  ],
  "bytecode": "0x60806040523480156200001157600080fd5b50604051620051f0380380620051f083398181016040528101906200003791906200028f565b80620000506301ffc9a760e01b6200009960201b60201c565b62000061816200017160201b60201c565b6200007963d9b67a2660e01b6200009960201b60201c565b62000091630e89341c60e01b6200009960201b60201c565b5050620003da565b63ffffffff60e01b817bffffffffffffffffffffffffffffffffffffffffffffffffffffffff1916141562000105576040517f08c379a0000000000000000000000000000000000000000000000000000000008152600401620000fc9062000316565b60405180910390fd5b6001600080837bffffffffffffffffffffffffffffffffffffffffffffffffffffffff19167bffffffffffffffffffffffffffffffffffffffffffffffffffffffff1916815260200190815260200160002060006101000a81548160ff02191690831515021790555050565b8060039080519060200190620001899291906200018d565b5050565b828054600181600116156101000203166002900490600052602060002090601f016020900481019282601f10620001d057805160ff191683800117855562000201565b8280016001018555821562000201579182015b8281111562000200578251825591602001919060010190620001e3565b5b50905062000210919062000214565b5090565b5b808211156200022f57600081600090555060010162000215565b5090565b600082601f8301126200024557600080fd5b81516200025c620002568262000366565b62000338565b915080825260208301602083018583830111156200027957600080fd5b62000286838284620003a4565b50505092915050565b600060208284031215620002a257600080fd5b600082015167ffffffffffffffff811115620002bd57600080fd5b620002cb8482850162000233565b91505092915050565b6000620002e3601c8362000393565b91507f4552433136353a20696e76616c696420696e74657266616365206964000000006000830152602082019050919050565b600060208201905081810360008301526200033181620002d4565b9050919050565b6000604051905081810181811067ffffffffffffffff821117156200035c57600080fd5b8060405250919050565b600067ffffffffffffffff8211156200037e57600080fd5b601f19601f8301169050602081019050919050565b600082825260208201905092915050565b60005b83811015620003c4578082015181840152602081019050620003a7565b83811115620003d4576000848401525b50505050565b614e0680620003ea6000396000f3fe608060405234801561001057600080fd5b50600436106101365760003560e01c806376d708d7116100b8578063cc56418d1161007c578063cc56418d14610398578063dc61b1b7146103b4578063dd4d9e85146103e8578063e4ccc8ea14610418578063e985e9c514610434578063f242432a1461046457610136565b806376d708d7146102e157806381550513146102ff578063a22cb4651461031b578063b63616bf14610337578063b772b8ae1461036857610136565b80632eb2c2d6116100ff5780632eb2c2d61461022b5780634e1273f4146102475780635e0b7e301461027757806363aef8a314610293578063689ee59a146102c357610136565b8062fdd58e1461013b57806301ffc9a71461016b5780630e89341c1461019b57806312c86ba4146101cb57806316cadeab146101fb575b600080fd5b6101556004803603810190610150919061386b565b610480565b60405161016291906148df565b60405180910390f35b6101856004803603810190610180919061397f565b61054a565b6040516101929190614662565b60405180910390f35b6101b560048036038101906101b09190613a7e565b6105b1565b6040516101c2919061467d565b60405180910390f35b6101e560048036038101906101e091906139d1565b610655565b6040516101f2919061467d565b60405180910390f35b61021560048036038101906102109190613817565b6107da565b60405161022291906148df565b60405180910390f35b6102456004803603810190610240919061350f565b61080f565b005b610261600480360381019061025c9190613913565b610bd0565b60405161026e9190614609565b60405180910390f35b610291600480360381019061028c9190613a12565b610d96565b005b6102ad60048036038101906102a891906133eb565b610fb6565b6040516102ba91906145e7565b60405180910390f35b6102cb611305565b6040516102d891906145e7565b60405180910390f35b6102e9611541565b6040516102f691906145e7565b60405180910390f35b61031960048036038101906103149190613450565b61162a565b005b610335600480360381019061033091906137db565b61164c565b005b610351600480360381019061034c91906139d1565b6117cd565b60405161035f9291906145b0565b60405180910390f35b610382600480360381019061037d91906138a7565b611cc6565b60405161038f9190614609565b60405180910390f35b6103b260048036038101906103ad91906135ce565b611ce2565b005b6103ce60048036038101906103c991906139d1565b611d1d565b6040516103df9594939291906148fa565b60405180910390f35b61040260048036038101906103fd9190613a7e565b611e2e565b60405161040f919061467d565b60405180910390f35b610432600480360381019061042d9190613704565b611ee7565b005b61044e60048036038101906104499190613414565b61211c565b60405161045b9190614662565b60405180910390f35b61047e60048036038101906104799190613675565b6121b0565b005b60008073ffffffffffffffffffffffffffffffffffffffff168373ffffffffffffffffffffffffffffffffffffffff1614156104f1576040517f08c379a00000000000000000000000000000000000000000000000000000000081526004016104e89061471f565b60405180910390fd5b6001600083815260200190815260200160002060008473ffffffffffffffffffffffffffffffffffffffff1673ffffffffffffffffffffffffffffffffffffffff16815260200190815260200160002054905092915050565b6000806000837bffffffffffffffffffffffffffffffffffffffffffffffffffffffff19167bffffffffffffffffffffffffffffffffffffffffffffffffffffffff1916815260200190815260200160002060009054906101000a900460ff169050919050565b606060038054600181600116156101000203166002900480601f0160208091040260200160405190810160405280929190818152602001828054600181600116156101000203166002900480156106495780601f1061061e57610100808354040283529160200191610649565b820191906000526020600020905b81548152906001019060200180831161062c57829003601f168201915b50505050509050919050565b606060048260405161066791906144c0565b908152602001604051809103902060010160009054906101000a900473ffffffffffffffffffffffffffffffffffffffff163373ffffffffffffffffffffffffffffffffffffffff168173ffffffffffffffffffffffffffffffffffffffff1614806106d957506106d8813361211c565b5b610718576040517f08c379a000000000000000000000000000000000000000000000000000000000815260040161070f9061489f565b60405180910390fd5b60048360405161072891906144c0565b90815260200160405180910390206003018054600181600116156101000203166002900480601f0160208091040260200160405190810160405280929190818152602001828054600181600116156101000203166002900480156107cd5780601f106107a2576101008083540402835291602001916107cd565b820191906000526020600020905b8154815290600101906020018083116107b057829003601f168201915b5050505050915050919050565b6000610807836004846040516107f091906144c0565b908152602001604051809103902060000154610480565b905092915050565b8151835114610853576040517f08c379a000000000000000000000000000000000000000000000000000000000815260040161084a9061485f565b60405180910390fd5b600073ffffffffffffffffffffffffffffffffffffffff168473ffffffffffffffffffffffffffffffffffffffff1614156108c3576040517f08c379a00000000000000000000000000000000000000000000000000000000081526004016108ba906147df565b60405180910390fd5b6108cb6124f3565b73ffffffffffffffffffffffffffffffffffffffff168573ffffffffffffffffffffffffffffffffffffffff16148061091157506109108561090b6124f3565b61211c565b5b610950576040517f08c379a0000000000000000000000000000000000000000000000000000000008152600401610947906147ff565b60405180910390fd5b600061095a6124f3565b905061096a8187878787876124fb565b60005b8451811015610b3b57600085828151811061098457fe5b60200260200101519050600085838151811061099c57fe5b60200260200101519050610a23816040518060600160405280602a8152602001614da7602a91396001600086815260200190815260200160002060008d73ffffffffffffffffffffffffffffffffffffffff1673ffffffffffffffffffffffffffffffffffffffff1681526020019081526020016000205461276a9092919063ffffffff16565b6001600084815260200190815260200160002060008b73ffffffffffffffffffffffffffffffffffffffff1673ffffffffffffffffffffffffffffffffffffffff16815260200190815260200160002081905550610ada816001600085815260200190815260200160002060008b73ffffffffffffffffffffffffffffffffffffffff1673ffffffffffffffffffffffffffffffffffffffff168152602001908152602001600020546127c590919063ffffffff16565b6001600084815260200190815260200160002060008a73ffffffffffffffffffffffffffffffffffffffff1673ffffffffffffffffffffffffffffffffffffffff16815260200190815260200160002081905550505080600101905061096d565b508473ffffffffffffffffffffffffffffffffffffffff168673ffffffffffffffffffffffffffffffffffffffff168273ffffffffffffffffffffffffffffffffffffffff167f4a39dc06d4c0dbc64b70af90fd698a233a518aa5d07e595d983b8c0526c8f7fb8787604051610bb292919061462b565b60405180910390a4610bc881878787878761281a565b505050505050565b60608151835114610c16576040517f08c379a0000000000000000000000000000000000000000000000000000000008152600401610c0d9061483f565b60405180910390fd5b6060835167ffffffffffffffff81118015610c3057600080fd5b50604051908082528060200260200182016040528015610c5f5781602001602082028036833780820191505090505b50905060005b8451811015610d8b57600073ffffffffffffffffffffffffffffffffffffffff16858281518110610c9257fe5b602002602001015173ffffffffffffffffffffffffffffffffffffffff161415610cf1576040517f08c379a0000000000000000000000000000000000000000000000000000000008152600401610ce89061473f565b60405180910390fd5b60016000858381518110610d0157fe5b602002602001015181526020019081526020016000206000868381518110610d2557fe5b602002602001015173ffffffffffffffffffffffffffffffffffffffff1673ffffffffffffffffffffffffffffffffffffffff16815260200190815260200160002054828281518110610d7457fe5b602002602001018181525050806001019050610c65565b508091505092915050565b610d9f826129ea565b15610ddf576040517f08c379a0000000000000000000000000000000000000000000000000000000008152600401610dd6906147bf565b60405180910390fd5b600582908060018154018082558091505060019003906000526020600020016000909190919091509080519060200190610e1a929190612fa7565b506060610e25613027565b6040518060c0016040528060058054905081526020013373ffffffffffffffffffffffffffffffffffffffff16815260200160006001811115610e6457fe5b81526020016103e8815260200184815260200183815250905080600485604051610e8e91906144c0565b90815260200160405180910390206000820151816000015560208201518160010160006101000a81548173ffffffffffffffffffffffffffffffffffffffff021916908373ffffffffffffffffffffffffffffffffffffffff16021790555060408201518160010160146101000a81548160ff02191690836001811115610f1157fe5b0217905550606082015181600201556080820151816003019080519060200190610f3c929190612fa7565b5060a0820151816004019080519060200190610f5992919061307e565b509050508360076000836000015181526020019081526020016000209080519060200190610f88929190612fa7565b50610fb081602001518260000151836060015160405180602001604052806000815250612a17565b50505050565b6060813373ffffffffffffffffffffffffffffffffffffffff168173ffffffffffffffffffffffffffffffffffffffff161480610ff95750610ff8813361211c565b5b611038576040517f08c379a000000000000000000000000000000000000000000000000000000000815260040161102f9061489f565b60405180910390fd5b606060058054905067ffffffffffffffff8111801561105657600080fd5b5060405190808252806020026020018201604052801561108a57816020015b60608152602001906001900390816110755790505b5090506000805b60058054905081101561126a57600060018111156110ab57fe5b6004600583815481106110ba57fe5b906000526020600020016040516110d191906144d7565b908152602001604051809103902060010160149054906101000a900460ff1660018111156110fb57fe5b14801561118a57508573ffffffffffffffffffffffffffffffffffffffff1660046005838154811061112957fe5b9060005260206000200160405161114091906144d7565b908152602001604051809103902060010160009054906101000a900473ffffffffffffffffffffffffffffffffffffffff1673ffffffffffffffffffffffffffffffffffffffff16145b1561125d576005818154811061119c57fe5b906000526020600020018054600181600116156101000203166002900480601f01602080910402602001604051908101604052809291908181526020018280546001816001161561010002031660029004801561123a5780601f1061120f5761010080835404028352916020019161123a565b820191906000526020600020905b81548152906001019060200180831161121d57829003601f168201915b505050505083838060010194508151811061125157fe5b60200260200101819052505b8080600101915050611091565b508067ffffffffffffffff8111801561128257600080fd5b506040519080825280602002602001820160405280156112b657816020015b60608152602001906001900390816112a15790505b50935060005b818110156112fc578281815181106112d057fe5b60200260200101518582815181106112e457fe5b602002602001018190525080806001019150506112bc565b50505050919050565b60608060058054905067ffffffffffffffff8111801561132457600080fd5b5060405190808252806020026020018201604052801561135857816020015b60608152602001906001900390816113435790505b5090506000805b6005805490508110156114a95760018081111561137857fe5b60046005838154811061138757fe5b9060005260206000200160405161139e91906144d7565b908152602001604051809103902060010160149054906101000a900460ff1660018111156113c857fe5b141561149c57600581815481106113db57fe5b906000526020600020018054600181600116156101000203166002900480601f0160208091040260200160405190810160405280929190818152602001828054600181600116156101000203166002900480156114795780601f1061144e57610100808354040283529160200191611479565b820191906000526020600020905b81548152906001019060200180831161145c57829003601f168201915b505050505083838060010194508151811061149057fe5b60200260200101819052505b808060010191505061135f565b508067ffffffffffffffff811180156114c157600080fd5b506040519080825280602002602001820160405280156114f557816020015b60608152602001906001900390816114e05790505b50925060005b8181101561153b5782818151811061150f57fe5b602002602001015184828151811061152357fe5b602002602001018190525080806001019150506114fb565b50505090565b60606005805480602002602001604051908101604052809291908181526020016000905b82821015611621578382906000526020600020018054600181600116156101000203166002900480601f01602080910402602001604051908101604052809291908181526020018280546001816001161561010002031660029004801561160d5780601f106115e25761010080835404028352916020019161160d565b820191906000526020600020905b8154815290600101906020018083116115f057829003601f168201915b505050505081526020019060010190611565565b50505050905090565b606061163584612bfe565b9050611644868683868661080f565b505050505050565b8173ffffffffffffffffffffffffffffffffffffffff1661166b6124f3565b73ffffffffffffffffffffffffffffffffffffffff1614156116c2576040517f08c379a00000000000000000000000000000000000000000000000000000000081526004016116b99061481f565b60405180910390fd5b80600260006116cf6124f3565b73ffffffffffffffffffffffffffffffffffffffff1673ffffffffffffffffffffffffffffffffffffffff16815260200190815260200160002060008473ffffffffffffffffffffffffffffffffffffffff1673ffffffffffffffffffffffffffffffffffffffff16815260200190815260200160002060006101000a81548160ff0219169083151502179055508173ffffffffffffffffffffffffffffffffffffffff1661177c6124f3565b73ffffffffffffffffffffffffffffffffffffffff167f17307eab39ab6107e8899845ad3d59bd9653f200f220920489ca2b5937696c31836040516117c19190614662565b60405180910390a35050565b6060806117d9836129ea565b611818576040517f08c379a000000000000000000000000000000000000000000000000000000000815260040161180f9061475f565b60405180910390fd5b611820613027565b60048460405161183091906144c0565b90815260200160405180910390206040518060c0016040529081600082015481526020016001820160009054906101000a900473ffffffffffffffffffffffffffffffffffffffff1673ffffffffffffffffffffffffffffffffffffffff1673ffffffffffffffffffffffffffffffffffffffff1681526020016001820160149054906101000a900460ff1660018111156118c757fe5b60018111156118d257fe5b815260200160028201548152602001600382018054600181600116156101000203166002900480601f0160208091040260200160405190810160405280929190818152602001828054600181600116156101000203166002900480156119795780601f1061194e57610100808354040283529160200191611979565b820191906000526020600020905b81548152906001019060200180831161195c57829003601f168201915b5050505050815260200160048201805480602002602001604051908101604052809291908181526020018280548015611a0757602002820191906000526020600020905b8160009054906101000a900473ffffffffffffffffffffffffffffffffffffffff1673ffffffffffffffffffffffffffffffffffffffff16815260200190600101908083116119bd575b505050505081525050905060608160a001515167ffffffffffffffff81118015611a3057600080fd5b50604051908082528060200260200182016040528015611a5f5781602001602082028036833780820191505090505b50905060608260a001515167ffffffffffffffff81118015611a8057600080fd5b50604051908082528060200260200182016040528015611aaf5781602001602082028036833780820191505090505b5090506000805b8460a0015151811015611b7f576000611ae68660a001518381518110611ad857fe5b60200260200101518a6107da565b90506000811115611b71578560a001518281518110611b0157fe5b6020026020010151858481518110611b1557fe5b602002602001019073ffffffffffffffffffffffffffffffffffffffff16908173ffffffffffffffffffffffffffffffffffffffff168152505080848481518110611b5c57fe5b60200260200101818152505082806001019350505b508080600101915050611ab6565b5060608167ffffffffffffffff81118015611b9957600080fd5b50604051908082528060200260200182016040528015611bc85781602001602082028036833780820191505090505b50905060608267ffffffffffffffff81118015611be457600080fd5b50604051908082528060200260200182016040528015611c135781602001602082028036833780820191505090505b50905060005b83811015611cb457858181518110611c2d57fe5b6020026020010151838281518110611c4157fe5b602002602001019073ffffffffffffffffffffffffffffffffffffffff16908173ffffffffffffffffffffffffffffffffffffffff1681525050848181518110611c8757fe5b6020026020010151828281518110611c9b57fe5b6020026020010181815250508080600101915050611c19565b50818197509750505050505050915091565b6060611cda83611cd584612bfe565b610bd0565b905092915050565b6000600484604051611cf491906144c0565b9081526020016040518091039020600001549050611d1586868386866121b0565b505050505050565b6004818051602081018201805184825260208301602085012081835280955050505050506000915090508060000154908060010160009054906101000a900473ffffffffffffffffffffffffffffffffffffffff16908060010160149054906101000a900460ff1690806002015490806003018054600181600116156101000203166002900480601f016020809104026020016040519081016040528092919081815260200182805460018160011615610100020316600290048015611e245780601f10611df957610100808354040283529160200191611e24565b820191906000526020600020905b815481529060010190602001808311611e0757829003601f168201915b5050505050905085565b60058181548110611e3b57fe5b906000526020600020016000915090508054600181600116156101000203166002900480601f016020809104026020016040519081016040528092919081815260200182805460018160011615610100020316600290048015611edf5780601f10611eb457610100808354040283529160200191611edf565b820191906000526020600020905b815481529060010190602001808311611ec257829003601f168201915b505050505081565b843373ffffffffffffffffffffffffffffffffffffffff168173ffffffffffffffffffffffffffffffffffffffff161480611f285750611f27813361211c565b5b611f67576040517f08c379a0000000000000000000000000000000000000000000000000000000008152600401611f5e9061489f565b60405180910390fd5b8251855114611fab576040517f08c379a0000000000000000000000000000000000000000000000000000000008152600401611fa2906146ff565b60405180910390fd5b611fb4846129ea565b611ff3576040517f08c379a0000000000000000000000000000000000000000000000000000000008152600401611fea9061475f565b60405180910390fd5b611ffc84612cb6565b1561203c576040517f08c379a0000000000000000000000000000000000000000000000000000000008152600401612033906148bf565b60405180910390fd5b61204583612d06565b612084576040517f08c379a000000000000000000000000000000000000000000000000000000000815260040161207b906146df565b60405180910390fd5b600160048560405161209691906144c0565b908152602001604051809103902060010160146101000a81548160ff021916908360018111156120c257fe5b021790555060005b855181101561211357612106878783815181106120e357fe5b6020026020010151878785815181106120f857fe5b602002602001015187611ce2565b80806001019150506120ca565b50505050505050565b6000600260008473ffffffffffffffffffffffffffffffffffffffff1673ffffffffffffffffffffffffffffffffffffffff16815260200190815260200160002060008373ffffffffffffffffffffffffffffffffffffffff1673ffffffffffffffffffffffffffffffffffffffff16815260200190815260200160002060009054906101000a900460ff16905092915050565b600073ffffffffffffffffffffffffffffffffffffffff168473ffffffffffffffffffffffffffffffffffffffff161415612220576040517f08c379a0000000000000000000000000000000000000000000000000000000008152600401612217906147df565b60405180910390fd5b6122286124f3565b73ffffffffffffffffffffffffffffffffffffffff168573ffffffffffffffffffffffffffffffffffffffff16148061226e575061226d856122686124f3565b61211c565b5b6122ad576040517f08c379a00000000000000000000000000000000000000000000000000000000081526004016122a49061479f565b60405180910390fd5b60006122b76124f3565b90506122d78187876122c888612d4c565b6122d188612d4c565b876124fb565b612354836040518060600160405280602a8152602001614da7602a91396001600088815260200190815260200160002060008a73ffffffffffffffffffffffffffffffffffffffff1673ffffffffffffffffffffffffffffffffffffffff1681526020019081526020016000205461276a9092919063ffffffff16565b6001600086815260200190815260200160002060008873ffffffffffffffffffffffffffffffffffffffff1673ffffffffffffffffffffffffffffffffffffffff1681526020019081526020016000208190555061240b836001600087815260200190815260200160002060008873ffffffffffffffffffffffffffffffffffffffff1673ffffffffffffffffffffffffffffffffffffffff168152602001908152602001600020546127c590919063ffffffff16565b6001600086815260200190815260200160002060008773ffffffffffffffffffffffffffffffffffffffff1673ffffffffffffffffffffffffffffffffffffffff168152602001908152602001600020819055508473ffffffffffffffffffffffffffffffffffffffff168673ffffffffffffffffffffffffffffffffffffffff168273ffffffffffffffffffffffffffffffffffffffff167fc3d58168c5ae7397731d063d5bbf3d657854427343f4c083240f7aacaa2d0f6287876040516124d5929190614954565b60405180910390a46124eb818787878787612dbc565b505050505050565b600033905090565b612509868686868686612f8c565b60005b83518110156127615760011515600660008773ffffffffffffffffffffffffffffffffffffffff1673ffffffffffffffffffffffffffffffffffffffff168152602001908152602001600020600086848151811061256657fe5b6020026020010151815260200190815260200160002060009054906101000a900460ff16151514612754576060600760008684815181106125a357fe5b602002602001015181526020019081526020016000208054600181600116156101000203166002900480601f01602080910402602001604051908101604052809291908181526020018280546001816001161561010002031660029004801561264d5780601f106126225761010080835404028352916020019161264d565b820191906000526020600020905b81548152906001019060200180831161263057829003601f168201915b5050505050905060048160405161266491906144c0565b9081526020016040518091039020600401869080600181540180825580915050600190039060005260206000200160009091909190916101000a81548173ffffffffffffffffffffffffffffffffffffffff021916908373ffffffffffffffffffffffffffffffffffffffff1602179055506001600660008873ffffffffffffffffffffffffffffffffffffffff1673ffffffffffffffffffffffffffffffffffffffff168152602001908152602001600020600087858151811061272557fe5b6020026020010151815260200190815260200160002060006101000a81548160ff021916908315150217905550505b808060010191505061250c565b50505050505050565b60008383111582906127b2576040517f08c379a00000000000000000000000000000000000000000000000000000000081526004016127a9919061467d565b60405180910390fd5b5060008385039050809150509392505050565b600080828401905083811015612810576040517f08c379a00000000000000000000000000000000000000000000000000000000081526004016128079061477f565b60405180910390fd5b8091505092915050565b6128398473ffffffffffffffffffffffffffffffffffffffff16612f94565b156129e2578373ffffffffffffffffffffffffffffffffffffffff1663bc197c8187878686866040518663ffffffff1660e01b815260040161287f9594939291906144ee565b602060405180830381600087803b15801561289957600080fd5b505af19250505080156128ca57506040513d601f19601f820116820180604052508101906128c791906139a8565b60015b612959576128d6614c87565b806128e1575061291e565b806040517f08c379a0000000000000000000000000000000000000000000000000000000008152600401612915919061467d565b60405180910390fd5b6040517f08c379a00000000000000000000000000000000000000000000000000000000081526004016129509061469f565b60405180910390fd5b63bc197c8160e01b7bffffffffffffffffffffffffffffffffffffffffffffffffffffffff1916817bffffffffffffffffffffffffffffffffffffffffffffffffffffffff1916146129e0576040517f08c379a00000000000000000000000000000000000000000000000000000000081526004016129d7906146bf565b60405180910390fd5b505b505050505050565b6000806004836040516129fd91906144c0565b908152602001604051809103902060000154119050919050565b600073ffffffffffffffffffffffffffffffffffffffff168473ffffffffffffffffffffffffffffffffffffffff161415612a87576040517f08c379a0000000000000000000000000000000000000000000000000000000008152600401612a7e9061487f565b60405180910390fd5b6000612a916124f3565b9050612ab281600087612aa388612d4c565b612aac88612d4c565b876124fb565b612b15836001600087815260200190815260200160002060008873ffffffffffffffffffffffffffffffffffffffff1673ffffffffffffffffffffffffffffffffffffffff168152602001908152602001600020546127c590919063ffffffff16565b6001600086815260200190815260200160002060008773ffffffffffffffffffffffffffffffffffffffff1673ffffffffffffffffffffffffffffffffffffffff168152602001908152602001600020819055508473ffffffffffffffffffffffffffffffffffffffff16600073ffffffffffffffffffffffffffffffffffffffff168273ffffffffffffffffffffffffffffffffffffffff167fc3d58168c5ae7397731d063d5bbf3d657854427343f4c083240f7aacaa2d0f628787604051612be0929190614954565b60405180910390a4612bf781600087878787612dbc565b5050505050565b6060815167ffffffffffffffff81118015612c1857600080fd5b50604051908082528060200260200182016040528015612c475781602001602082028036833780820191505090505b50905060005b8251811015612cb0576004838281518110612c6457fe5b6020026020010151604051612c7991906144c0565b908152602001604051809103902060000154828281518110612c9757fe5b6020026020010181815250508080600101915050612c4d565b50919050565b6000600180811115612cc457fe5b600483604051612cd491906144c0565b908152602001604051809103902060010160149054906101000a900460ff166001811115612cfe57fe5b149050919050565b6000806000905060005b8351811015612d3e57838181518110612d2557fe5b6020026020010151820191508080600101915050612d10565b506103e88114915050919050565b606080600167ffffffffffffffff81118015612d6757600080fd5b50604051908082528060200260200182016040528015612d965781602001602082028036833780820191505090505b5090508281600081518110612da757fe5b60200260200101818152505080915050919050565b612ddb8473ffffffffffffffffffffffffffffffffffffffff16612f94565b15612f84578373ffffffffffffffffffffffffffffffffffffffff1663f23a6e6187878686866040518663ffffffff1660e01b8152600401612e21959493929190614556565b602060405180830381600087803b158015612e3b57600080fd5b505af1925050508015612e6c57506040513d601f19601f82011682018060405250810190612e6991906139a8565b60015b612efb57612e78614c87565b80612e835750612ec0565b806040517f08c379a0000000000000000000000000000000000000000000000000000000008152600401612eb7919061467d565b60405180910390fd5b6040517f08c379a0000000000000000000000000000000000000000000000000000000008152600401612ef29061469f565b60405180910390fd5b63f23a6e6160e01b7bffffffffffffffffffffffffffffffffffffffffffffffffffffffff1916817bffffffffffffffffffffffffffffffffffffffffffffffffffffffff191614612f82576040517f08c379a0000000000000000000000000000000000000000000000000000000008152600401612f79906146bf565b60405180910390fd5b505b505050505050565b505050505050565b600080823b905060008111915050919050565b828054600181600116156101000203166002900490600052602060002090601f016020900481019282601f10612fe857805160ff1916838001178555613016565b82800160010185558215613016579182015b82811115613015578251825591602001919060010190612ffa565b5b5090506130239190613108565b5090565b6040518060c0016040528060008152602001600073ffffffffffffffffffffffffffffffffffffffff1681526020016000600181111561306357fe5b81526020016000815260200160608152602001606081525090565b8280548282559060005260206000209081019282156130f7579160200282015b828111156130f65782518260006101000a81548173ffffffffffffffffffffffffffffffffffffffff021916908373ffffffffffffffffffffffffffffffffffffffff1602179055509160200191906001019061309e565b5b5090506131049190613125565b5090565b5b80821115613121576000816000905550600101613109565b5090565b5b8082111561315c57600081816101000a81549073ffffffffffffffffffffffffffffffffffffffff021916905550600101613126565b5090565b60008135905061316f81614d4a565b92915050565b600082601f83011261318657600080fd5b8135613199613194826149aa565b61497d565b915081818352602084019350602081019050838560208402820111156131be57600080fd5b60005b838110156131ee57816131d48882613160565b8452602084019350602083019250506001810190506131c1565b5050505092915050565b600082601f83011261320957600080fd5b813561321c613217826149d2565b61497d565b9150818183526020840193506020810190508360005b8381101561326257813586016132488882613382565b845260208401935060208301925050600181019050613232565b5050505092915050565b600082601f83011261327d57600080fd5b813561329061328b826149fa565b61497d565b915081818352602084019350602081019050838560208402820111156132b557600080fd5b60005b838110156132e557816132cb88826133d6565b8452602084019350602083019250506001810190506132b8565b5050505092915050565b6000813590506132fe81614d61565b92915050565b60008135905061331381614d78565b92915050565b60008151905061332881614d78565b92915050565b600082601f83011261333f57600080fd5b813561335261334d82614a22565b61497d565b9150808252602083016020830185838301111561336e57600080fd5b613379838284614c27565b50505092915050565b600082601f83011261339357600080fd5b81356133a66133a182614a4e565b61497d565b915080825260208301602083018583830111156133c257600080fd5b6133cd838284614c27565b50505092915050565b6000813590506133e581614d8f565b92915050565b6000602082840312156133fd57600080fd5b600061340b84828501613160565b91505092915050565b6000806040838503121561342757600080fd5b600061343585828601613160565b925050602061344685828601613160565b9150509250929050565b600080600080600060a0868803121561346857600080fd5b600061347688828901613160565b955050602061348788828901613160565b945050604086013567ffffffffffffffff8111156134a457600080fd5b6134b0888289016131f8565b935050606086013567ffffffffffffffff8111156134cd57600080fd5b6134d98882890161326c565b925050608086013567ffffffffffffffff8111156134f657600080fd5b6135028882890161332e565b9150509295509295909350565b600080600080600060a0868803121561352757600080fd5b600061353588828901613160565b955050602061354688828901613160565b945050604086013567ffffffffffffffff81111561356357600080fd5b61356f8882890161326c565b935050606086013567ffffffffffffffff81111561358c57600080fd5b6135988882890161326c565b925050608086013567ffffffffffffffff8111156135b557600080fd5b6135c18882890161332e565b9150509295509295909350565b600080600080600060a086880312156135e657600080fd5b60006135f488828901613160565b955050602061360588828901613160565b945050604086013567ffffffffffffffff81111561362257600080fd5b61362e88828901613382565b935050606061363f888289016133d6565b925050608086013567ffffffffffffffff81111561365c57600080fd5b6136688882890161332e565b9150509295509295909350565b600080600080600060a0868803121561368d57600080fd5b600061369b88828901613160565b95505060206136ac88828901613160565b94505060406136bd888289016133d6565b93505060606136ce888289016133d6565b925050608086013567ffffffffffffffff8111156136eb57600080fd5b6136f78882890161332e565b9150509295509295909350565b600080600080600060a0868803121561371c57600080fd5b600061372a88828901613160565b955050602086013567ffffffffffffffff81111561374757600080fd5b61375388828901613175565b945050604086013567ffffffffffffffff81111561377057600080fd5b61377c88828901613382565b935050606086013567ffffffffffffffff81111561379957600080fd5b6137a58882890161326c565b925050608086013567ffffffffffffffff8111156137c257600080fd5b6137ce8882890161332e565b9150509295509295909350565b600080604083850312156137ee57600080fd5b60006137fc85828601613160565b925050602061380d858286016132ef565b9150509250929050565b6000806040838503121561382a57600080fd5b600061383885828601613160565b925050602083013567ffffffffffffffff81111561385557600080fd5b61386185828601613382565b9150509250929050565b6000806040838503121561387e57600080fd5b600061388c85828601613160565b925050602061389d858286016133d6565b9150509250929050565b600080604083850312156138ba57600080fd5b600083013567ffffffffffffffff8111156138d457600080fd5b6138e085828601613175565b925050602083013567ffffffffffffffff8111156138fd57600080fd5b613909858286016131f8565b9150509250929050565b6000806040838503121561392657600080fd5b600083013567ffffffffffffffff81111561394057600080fd5b61394c85828601613175565b925050602083013567ffffffffffffffff81111561396957600080fd5b6139758582860161326c565b9150509250929050565b60006020828403121561399157600080fd5b600061399f84828501613304565b91505092915050565b6000602082840312156139ba57600080fd5b60006139c884828501613319565b91505092915050565b6000602082840312156139e357600080fd5b600082013567ffffffffffffffff8111156139fd57600080fd5b613a0984828501613382565b91505092915050565b60008060408385031215613a2557600080fd5b600083013567ffffffffffffffff811115613a3f57600080fd5b613a4b85828601613382565b925050602083013567ffffffffffffffff811115613a6857600080fd5b613a7485828601613382565b9150509250929050565b600060208284031215613a9057600080fd5b6000613a9e848285016133d6565b91505092915050565b6000613ab38383613aeb565b60208301905092915050565b6000613acb8383613c91565b905092915050565b6000613adf83836144a2565b60208301905092915050565b613af481614b8e565b82525050565b613b0381614b8e565b82525050565b6000613b1482614abf565b613b1e8185614b1d565b9350613b2983614a7a565b8060005b83811015613b5a578151613b418882613aa7565b9750613b4c83614af6565b925050600181019050613b2d565b5085935050505092915050565b6000613b7282614aca565b613b7c8185614b2e565b935083602082028501613b8e85614a8a565b8060005b85811015613bca5784840389528151613bab8582613abf565b9450613bb683614b03565b925060208a01995050600181019050613b92565b50829750879550505050505092915050565b6000613be782614ad5565b613bf18185614b3f565b9350613bfc83614a9a565b8060005b83811015613c2d578151613c148882613ad3565b9750613c1f83614b10565b925050600181019050613c00565b5085935050505092915050565b613c4381614ba0565b82525050565b6000613c5482614ae0565b613c5e8185614b50565b9350613c6e818560208601614c36565b613c7781614c69565b840191505092915050565b613c8b81614c15565b82525050565b6000613c9c82614aeb565b613ca68185614b61565b9350613cb6818560208601614c36565b613cbf81614c69565b840191505092915050565b6000613cd582614aeb565b613cdf8185614b72565b9350613cef818560208601614c36565b613cf881614c69565b840191505092915050565b6000613d0e82614aeb565b613d188185614b83565b9350613d28818560208601614c36565b80840191505092915050565b600081546001811660008114613d515760018114613d7657613dba565b607f6002830416613d628187614b83565b955060ff1983168652808601935050613dba565b60028204613d848187614b83565b9550613d8f85614aaa565b60005b82811015613db157815481890152600182019150602081019050613d92565b82880195505050505b505092915050565b6000613dcf603483614b72565b91507f455243313135353a207472616e7366657220746f206e6f6e204552433131353560008301527f526563656976657220696d706c656d656e7465720000000000000000000000006020830152604082019050919050565b6000613e35602883614b72565b91507f455243313135353a204552433131353552656365697665722072656a6563746560008301527f6420746f6b656e730000000000000000000000000000000000000000000000006020830152604082019050919050565b6000613e9b602e83614b72565b91507f5245434f52443a20416c6c207368617265732073686f756c642062652064657660008301527f6964656420636f72726563746c790000000000000000000000000000000000006020830152604082019050919050565b6000613f01603083614b72565b91507f5245434f52443a205368617265486f6c6465727320616e6420616d6f756e747360008301527f206c656e677468206d69736d61746368000000000000000000000000000000006020830152604082019050919050565b6000613f67602b83614b72565b91507f455243313135353a2062616c616e636520717565727920666f7220746865207a60008301527f65726f20616464726573730000000000000000000000000000000000000000006020830152604082019050919050565b6000613fcd603183614b72565b91507f455243313135353a2062617463682062616c616e636520717565727920666f7260008301527f20746865207a65726f20616464726573730000000000000000000000000000006020830152604082019050919050565b6000614033601c83614b72565b91507f5245434f52443a204173736574206e6f74206d696e74656420796574000000006000830152602082019050919050565b6000614073601b83614b72565b91507f536166654d6174683a206164646974696f6e206f766572666c6f7700000000006000830152602082019050919050565b60006140b3602983614b72565b91507f455243313135353a2063616c6c6572206973206e6f74206f776e6572206e6f7260008301527f20617070726f76656400000000000000000000000000000000000000000000006020830152604082019050919050565b6000614119602883614b72565b91507f5245434f52443a2053686172657320666f7220617373657420616c6c7265616460008301527f79206d696e7465640000000000000000000000000000000000000000000000006020830152604082019050919050565b600061417f602583614b72565b91507f455243313135353a207472616e7366657220746f20746865207a65726f20616460008301527f64726573730000000000000000000000000000000000000000000000000000006020830152604082019050919050565b60006141e5603283614b72565b91507f455243313135353a207472616e736665722063616c6c6572206973206e6f742060008301527f6f776e6572206e6f7220617070726f76656400000000000000000000000000006020830152604082019050919050565b600061424b602983614b72565b91507f455243313135353a2073657474696e6720617070726f76616c2073746174757360008301527f20666f722073656c6600000000000000000000000000000000000000000000006020830152604082019050919050565b60006142b1602983614b72565b91507f455243313135353a206163636f756e747320616e6420696473206c656e67746860008301527f206d69736d6174636800000000000000000000000000000000000000000000006020830152604082019050919050565b6000614317602883614b72565b91507f455243313135353a2069647320616e6420616d6f756e7473206c656e6774682060008301527f6d69736d617463680000000000000000000000000000000000000000000000006020830152604082019050919050565b600061437d602183614b72565b91507f455243313135353a206d696e7420746f20746865207a65726f2061646472657360008301527f73000000000000000000000000000000000000000000000000000000000000006020830152604082019050919050565b60006143e3602b83614b72565b91507f455243313135353a2063616c6c6572206973206e6f742063726561746f72206e60008301527f6f7220617070726f7665640000000000000000000000000000000000000000006020830152604082019050919050565b6000614449602983614b72565b91507f5245434f52443a2053686172657320666f7220417373657420616c6c7265616460008301527f79206465766964656400000000000000000000000000000000000000000000006020830152604082019050919050565b6144ab81614c0b565b82525050565b6144ba81614c0b565b82525050565b60006144cc8284613d03565b915081905092915050565b60006144e38284613d34565b915081905092915050565b600060a0820190506145036000830188613afa565b6145106020830187613afa565b81810360408301526145228186613bdc565b905081810360608301526145368185613bdc565b9050818103608083015261454a8184613c49565b90509695505050505050565b600060a08201905061456b6000830188613afa565b6145786020830187613afa565b61458560408301866144b1565b61459260608301856144b1565b81810360808301526145a48184613c49565b90509695505050505050565b600060408201905081810360008301526145ca8185613b09565b905081810360208301526145de8184613bdc565b90509392505050565b600060208201905081810360008301526146018184613b67565b905092915050565b600060208201905081810360008301526146238184613bdc565b905092915050565b600060408201905081810360008301526146458185613bdc565b905081810360208301526146598184613bdc565b90509392505050565b60006020820190506146776000830184613c3a565b92915050565b600060208201905081810360008301526146978184613cca565b905092915050565b600060208201905081810360008301526146b881613dc2565b9050919050565b600060208201905081810360008301526146d881613e28565b9050919050565b600060208201905081810360008301526146f881613e8e565b9050919050565b6000602082019050818103600083015261471881613ef4565b9050919050565b6000602082019050818103600083015261473881613f5a565b9050919050565b6000602082019050818103600083015261475881613fc0565b9050919050565b6000602082019050818103600083015261477881614026565b9050919050565b6000602082019050818103600083015261479881614066565b9050919050565b600060208201905081810360008301526147b8816140a6565b9050919050565b600060208201905081810360008301526147d88161410c565b9050919050565b600060208201905081810360008301526147f881614172565b9050919050565b60006020820190508181036000830152614818816141d8565b9050919050565b600060208201905081810360008301526148388161423e565b9050919050565b60006020820190508181036000830152614858816142a4565b9050919050565b600060208201905081810360008301526148788161430a565b9050919050565b6000602082019050818103600083015261489881614370565b9050919050565b600060208201905081810360008301526148b8816143d6565b9050919050565b600060208201905081810360008301526148d88161443c565b9050919050565b60006020820190506148f460008301846144b1565b92915050565b600060a08201905061490f60008301886144b1565b61491c6020830187613afa565b6149296040830186613c82565b61493660608301856144b1565b81810360808301526149488184613cca565b90509695505050505050565b600060408201905061496960008301856144b1565b61497660208301846144b1565b9392505050565b6000604051905081810181811067ffffffffffffffff821117156149a057600080fd5b8060405250919050565b600067ffffffffffffffff8211156149c157600080fd5b602082029050602081019050919050565b600067ffffffffffffffff8211156149e957600080fd5b602082029050602081019050919050565b600067ffffffffffffffff821115614a1157600080fd5b602082029050602081019050919050565b600067ffffffffffffffff821115614a3957600080fd5b601f19601f8301169050602081019050919050565b600067ffffffffffffffff821115614a6557600080fd5b601f19601f8301169050602081019050919050565b6000819050602082019050919050565b6000819050602082019050919050565b6000819050602082019050919050565b60008190508160005260206000209050919050565b600081519050919050565b600081519050919050565b600081519050919050565b600081519050919050565b600081519050919050565b6000602082019050919050565b6000602082019050919050565b6000602082019050919050565b600082825260208201905092915050565b600082825260208201905092915050565b600082825260208201905092915050565b600082825260208201905092915050565b600082825260208201905092915050565b600082825260208201905092915050565b600081905092915050565b6000614b9982614beb565b9050919050565b60008115159050919050565b60007fffffffff0000000000000000000000000000000000000000000000000000000082169050919050565b6000819050614be682614d3d565b919050565b600073ffffffffffffffffffffffffffffffffffffffff82169050919050565b6000819050919050565b6000614c2082614bd8565b9050919050565b82818337600083830152505050565b60005b83811015614c54578082015181840152602081019050614c39565b83811115614c63576000848401525b50505050565b6000601f19601f8301169050919050565b60008160e01c9050919050565b600060443d1015614c9757614d3a565b60046000803e614ca8600051614c7a565b6308c379a08114614cb95750614d3a565b60405160043d036004823e80513d602482011167ffffffffffffffff82111715614ce557505050614d3a565b808201805167ffffffffffffffff811115614d04575050505050614d3a565b8060208301013d8501811115614d1f57505050505050614d3a565b614d2882614c69565b60208401016040528296505050505050505b90565b60028110614d4757fe5b50565b614d5381614b8e565b8114614d5e57600080fd5b50565b614d6a81614ba0565b8114614d7557600080fd5b50565b614d8181614bac565b8114614d8c57600080fd5b50565b614d9881614c0b565b8114614da357600080fd5b5056fe455243313135353a20696e73756666696369656e742062616c616e636520666f72207472616e73666572a2646970667358221220562429abba786d5b3c346ffd5683b88b094fe40e5b52133e6aa8de2cbeb588e064736f6c63430007000033",
  "linkReferences": {},
  "deployedLinkReferences": {}
}