{
  "_format": "hh-sol-artifact-1",
  "contractName": "Record",
  "sourceName": "contracts/Record.sol",
  "abi": [
    {
      "inputs": [
        {
          "internalType": "string",
          "name": "_uri",
          "type": "string"
        }
      ],
      "stateMutability": "nonpayable",
      "type": "constructor"
    },
    {
      "anonymous": false,
      "inputs": [
        {
          "indexed": true,
          "internalType": "address",
          "name": "account",
          "type": "address"
        },
        {
          "indexed": true,
          "internalType": "address",
          "name": "operator",
          "type": "address"
        },
        {
          "indexed": false,
          "internalType": "bool",
          "name": "approved",
          "type": "bool"
        }
      ],
      "name": "ApprovalForAll",
      "type": "event"
    },
    {
      "anonymous": false,
      "inputs": [
        {
          "indexed": true,
          "internalType": "address",
          "name": "operator",
          "type": "address"
        },
        {
          "indexed": true,
          "internalType": "address",
          "name": "from",
          "type": "address"
        },
        {
          "indexed": true,
          "internalType": "address",
          "name": "to",
          "type": "address"
        },
        {
          "indexed": false,
          "internalType": "uint256[]",
          "name": "ids",
          "type": "uint256[]"
        },
        {
          "indexed": false,
          "internalType": "uint256[]",
          "name": "values",
          "type": "uint256[]"
        }
      ],
      "name": "TransferBatch",
      "type": "event"
    },
    {
      "anonymous": false,
      "inputs": [
        {
          "indexed": true,
          "internalType": "address",
          "name": "operator",
          "type": "address"
        },
        {
          "indexed": true,
          "internalType": "address",
          "name": "from",
          "type": "address"
        },
        {
          "indexed": true,
          "internalType": "address",
          "name": "to",
          "type": "address"
        },
        {
          "indexed": false,
          "internalType": "uint256",
          "name": "id",
          "type": "uint256"
        },
        {
          "indexed": false,
          "internalType": "uint256",
          "name": "value",
          "type": "uint256"
        }
      ],
      "name": "TransferSingle",
      "type": "event"
    },
    {
      "anonymous": false,
      "inputs": [
        {
          "indexed": false,
          "internalType": "string",
          "name": "value",
          "type": "string"
        },
        {
          "indexed": true,
          "internalType": "uint256",
          "name": "id",
          "type": "uint256"
        }
      ],
      "name": "URI",
      "type": "event"
    },
    {
      "inputs": [],
      "name": "allAssets",
      "outputs": [
        {
          "internalType": "string[]",
          "name": "",
          "type": "string[]"
        }
      ],
      "stateMutability": "view",
      "type": "function"
    },
    {
      "inputs": [],
      "name": "allDividedAssets",
      "outputs": [
        {
          "internalType": "string[]",
          "name": "dividedAssets",
          "type": "string[]"
        }
      ],
      "stateMutability": "view",
      "type": "function"
    },
    {
      "inputs": [
        {
          "internalType": "uint256",
          "name": "",
          "type": "uint256"
        }
      ],
      "name": "assetRefs",
      "outputs": [
        {
          "internalType": "string",
          "name": "",
          "type": "string"
        }
      ],
      "stateMutability": "view",
      "type": "function"
    },
    {
      "inputs": [
        {
          "internalType": "string",
          "name": "",
          "type": "string"
        }
      ],
      "name": "assetShareTokens",
      "outputs": [
        {
          "internalType": "uint256",
          "name": "id",
          "type": "uint256"
        },
        {
          "internalType": "address",
          "name": "creator",
          "type": "address"
        },
        {
          "internalType": "enum Record.AssetShareTokenStatus",
          "name": "status",
          "type": "uint8"
        },
        {
          "internalType": "uint256",
          "name": "shares",
          "type": "uint256"
        },
        {
          "internalType": "string",
          "name": "metadataUri",
          "type": "string"
        }
      ],
      "stateMutability": "view",
      "type": "function"
    },
    {
      "inputs": [
        {
          "internalType": "address",
          "name": "_owner",
          "type": "address"
        },
        {
          "internalType": "string",
          "name": "_asserRef",
          "type": "string"
        }
      ],
      "name": "balance",
      "outputs": [
        {
          "internalType": "uint256",
          "name": "",
          "type": "uint256"
        }
      ],
      "stateMutability": "view",
      "type": "function"
    },
    {
      "inputs": [
        {
          "internalType": "address[]",
          "name": "_owners",
          "type": "address[]"
        },
        {
          "internalType": "string[]",
          "name": "_assetRefs",
          "type": "string[]"
        }
      ],
      "name": "balanceBatch",
      "outputs": [
        {
          "internalType": "uint256[]",
          "name": "",
          "type": "uint256[]"
        }
      ],
      "stateMutability": "view",
      "type": "function"
    },
    {
      "inputs": [
        {
          "internalType": "address",
          "name": "account",
          "type": "address"
        },
        {
          "internalType": "uint256",
          "name": "id",
          "type": "uint256"
        }
      ],
      "name": "balanceOf",
      "outputs": [
        {
          "internalType": "uint256",
          "name": "",
          "type": "uint256"
        }
      ],
      "stateMutability": "view",
      "type": "function"
    },
    {
      "inputs": [
        {
          "internalType": "address[]",
          "name": "accounts",
          "type": "address[]"
        },
        {
          "internalType": "uint256[]",
          "name": "ids",
          "type": "uint256[]"
        }
      ],
      "name": "balanceOfBatch",
      "outputs": [
        {
          "internalType": "uint256[]",
          "name": "",
          "type": "uint256[]"
        }
      ],
      "stateMutability": "view",
      "type": "function"
    },
    {
      "inputs": [
        {
          "internalType": "address",
          "name": "creator",
          "type": "address"
        },
        {
          "internalType": "address[]",
          "name": "_shareHolders",
          "type": "address[]"
        },
        {
          "internalType": "string",
          "name": "_assetRef",
          "type": "string"
        },
        {
          "internalType": "uint256[]",
          "name": "_amounts",
          "type": "uint256[]"
        },
        {
          "internalType": "bytes",
          "name": "_data",
          "type": "bytes"
        }
      ],
      "name": "divideAssetShares",
      "outputs": [],
      "stateMutability": "nonpayable",
      "type": "function"
    },
    {
      "inputs": [
        {
          "internalType": "address",
          "name": "account",
          "type": "address"
        },
        {
          "internalType": "address",
          "name": "operator",
          "type": "address"
        }
      ],
      "name": "isApprovedForAll",
      "outputs": [
        {
          "internalType": "bool",
          "name": "",
          "type": "bool"
        }
      ],
      "stateMutability": "view",
      "type": "function"
    },
    {
      "inputs": [
        {
          "internalType": "string",
          "name": "_assetRef",
          "type": "string"
        }
      ],
      "name": "metadataUri",
      "outputs": [
        {
          "internalType": "string",
          "name": "",
          "type": "string"
        }
      ],
      "stateMutability": "view",
      "type": "function"
    },
    {
      "inputs": [
        {
          "internalType": "string",
          "name": "_assetRef",
          "type": "string"
        },
        {
          "internalType": "string",
          "name": "_uri",
          "type": "string"
        }
      ],
      "name": "mintAssetShares",
      "outputs": [],
      "stateMutability": "nonpayable",
      "type": "function"
    },
    {
      "inputs": [
        {
          "internalType": "address",
          "name": "creator",
          "type": "address"
        }
      ],
      "name": "mintedAssetSharesBy",
      "outputs": [
        {
          "internalType": "string[]",
          "name": "mintedAssets",
          "type": "string[]"
        }
      ],
      "stateMutability": "view",
      "type": "function"
    },
    {
      "inputs": [
        {
          "internalType": "address",
          "name": "owner",
          "type": "address"
        }
      ],
      "name": "ownedAssetSharesWithBalances",
      "outputs": [
        {
          "internalType": "string[]",
          "name": "ownedAssets",
          "type": "string[]"
        },
        {
          "internalType": "uint256[]",
          "name": "ownedBalances",
          "type": "uint256[]"
        }
      ],
      "stateMutability": "view",
      "type": "function"
    },
    {
      "inputs": [
        {
          "internalType": "address",
          "name": "from",
          "type": "address"
        },
        {
          "internalType": "address",
          "name": "to",
          "type": "address"
        },
        {
          "internalType": "uint256[]",
          "name": "ids",
          "type": "uint256[]"
        },
        {
          "internalType": "uint256[]",
          "name": "amounts",
          "type": "uint256[]"
        },
        {
          "internalType": "bytes",
          "name": "data",
          "type": "bytes"
        }
      ],
      "name": "safeBatchTransferFrom",
      "outputs": [],
      "stateMutability": "nonpayable",
      "type": "function"
    },
    {
      "inputs": [
        {
          "internalType": "address",
          "name": "from",
          "type": "address"
        },
        {
          "internalType": "address",
          "name": "to",
          "type": "address"
        },
        {
          "internalType": "uint256",
          "name": "id",
          "type": "uint256"
        },
        {
          "internalType": "uint256",
          "name": "amount",
          "type": "uint256"
        },
        {
          "internalType": "bytes",
          "name": "data",
          "type": "bytes"
        }
      ],
      "name": "safeTransferFrom",
      "outputs": [],
      "stateMutability": "nonpayable",
      "type": "function"
    },
    {
      "inputs": [
        {
          "internalType": "address",
          "name": "operator",
          "type": "address"
        },
        {
          "internalType": "bool",
          "name": "approved",
          "type": "bool"
        }
      ],
      "name": "setApprovalForAll",
      "outputs": [],
      "stateMutability": "nonpayable",
      "type": "function"
    },
    {
      "inputs": [
        {
          "internalType": "string",
          "name": "_assetRef",
          "type": "string"
        }
      ],
      "name": "shareHoldersWithBalance",
      "outputs": [
        {
          "internalType": "address[]",
          "name": "",
          "type": "address[]"
        },
        {
          "internalType": "uint256[]",
          "name": "",
          "type": "uint256[]"
        }
      ],
      "stateMutability": "view",
      "type": "function"
    },
    {
      "inputs": [
        {
          "internalType": "bytes4",
          "name": "interfaceId",
          "type": "bytes4"
        }
      ],
      "name": "supportsInterface",
      "outputs": [
        {
          "internalType": "bool",
          "name": "",
          "type": "bool"
        }
      ],
      "stateMutability": "view",
      "type": "function"
    },
    {
      "inputs": [
        {
          "internalType": "address",
          "name": "_from",
          "type": "address"
        },
        {
          "internalType": "address",
          "name": "_to",
          "type": "address"
        },
        {
          "internalType": "string",
          "name": "_assetRef",
          "type": "string"
        },
        {
          "internalType": "uint256",
          "name": "_amount",
          "type": "uint256"
        },
        {
          "internalType": "bytes",
          "name": "_data",
          "type": "bytes"
        }
      ],
      "name": "transfer",
      "outputs": [],
      "stateMutability": "nonpayable",
      "type": "function"
    },
    {
      "inputs": [
        {
          "internalType": "address",
          "name": "_from",
          "type": "address"
        },
        {
          "internalType": "address",
          "name": "_to",
          "type": "address"
        },
        {
          "internalType": "string[]",
          "name": "_assetRefs",
          "type": "string[]"
        },
        {
          "internalType": "uint256[]",
          "name": "_amounts",
          "type": "uint256[]"
        },
        {
          "internalType": "bytes",
          "name": "_data",
          "type": "bytes"
        }
      ],
      "name": "transferBatch",
      "outputs": [],
      "stateMutability": "nonpayable",
      "type": "function"
    },
    {
      "inputs": [
        {
          "internalType": "uint256",
          "name": "",
          "type": "uint256"
        }
      ],
      "name": "uri",
      "outputs": [
        {
          "internalType": "string",
          "name": "",
          "type": "string"
        }
      ],
      "stateMutability": "view",
      "type": "function"
    }
  ],
  "bytecode": "0x60806040523480156200001157600080fd5b50604051620056fe380380620056fe83398181016040528101906200003791906200028f565b80620000506301ffc9a760e01b6200009960201b60201c565b62000061816200017160201b60201c565b6200007963d9b67a2660e01b6200009960201b60201c565b62000091630e89341c60e01b6200009960201b60201c565b5050620003da565b63ffffffff60e01b817bffffffffffffffffffffffffffffffffffffffffffffffffffffffff1916141562000105576040517f08c379a0000000000000000000000000000000000000000000000000000000008152600401620000fc9062000316565b60405180910390fd5b6001600080837bffffffffffffffffffffffffffffffffffffffffffffffffffffffff19167bffffffffffffffffffffffffffffffffffffffffffffffffffffffff1916815260200190815260200160002060006101000a81548160ff02191690831515021790555050565b8060039080519060200190620001899291906200018d565b5050565b828054600181600116156101000203166002900490600052602060002090601f016020900481019282601f10620001d057805160ff191683800117855562000201565b8280016001018555821562000201579182015b8281111562000200578251825591602001919060010190620001e3565b5b50905062000210919062000214565b5090565b5b808211156200022f57600081600090555060010162000215565b5090565b600082601f8301126200024557600080fd5b81516200025c620002568262000366565b62000338565b915080825260208301602083018583830111156200027957600080fd5b62000286838284620003a4565b50505092915050565b600060208284031215620002a257600080fd5b600082015167ffffffffffffffff811115620002bd57600080fd5b620002cb8482850162000233565b91505092915050565b6000620002e3601c8362000393565b91507f4552433136353a20696e76616c696420696e74657266616365206964000000006000830152602082019050919050565b600060208201905081810360008301526200033181620002d4565b9050919050565b6000604051905081810181811067ffffffffffffffff821117156200035c57600080fd5b8060405250919050565b600067ffffffffffffffff8211156200037e57600080fd5b601f19601f8301169050602081019050919050565b600082825260208201905092915050565b60005b83811015620003c4578082015181840152602081019050620003a7565b83811115620003d4576000848401525b50505050565b61531480620003ea6000396000f3fe608060405234801561001057600080fd5b50600436106101415760003560e01c806376d708d7116100b8578063b772b8ae1161007c578063b772b8ae146103c0578063cc56418d146103f0578063dc61b1b71461040c578063dd4d9e8514610440578063e985e9c514610470578063f242432a146104a057610141565b806376d708d71461031b5780637c28f8c4146103395780638155051314610357578063a22cb46514610373578063b63616bf1461038f57610141565b806316cadeab1161010a57806316cadeab146102225780632eb2c2d6146102525780634e1273f41461026e5780635735df951461029e5780635e0b7e30146102cf57806363aef8a3146102eb57610141565b8062fdd58e1461014657806301ffc9a71461017657806306bbb558146101a65780630e89341c146101c257806312c86ba4146101f2575b600080fd5b610160600480360381019061015b9190613cbc565b6104bc565b60405161016d9190614ded565b60405180910390f35b610190600480360381019061018b9190613dd0565b610586565b60405161019d9190614b50565b60405180910390f35b6101c060048036038101906101bb9190613b55565b6105ed565b005b6101dc60048036038101906101d79190613ecf565b610822565b6040516101e99190614b6b565b60405180910390f35b61020c60048036038101906102079190613e22565b6108c6565b6040516102199190614b6b565b60405180910390f35b61023c60048036038101906102379190613c68565b610a4b565b6040516102499190614ded565b60405180910390f35b61026c60048036038101906102679190613960565b610a80565b005b61028860048036038101906102839190613d64565b610e41565b6040516102959190614af7565b60405180910390f35b6102b860048036038101906102b3919061383c565b611007565b6040516102c6929190614ac0565b60405180910390f35b6102e960048036038101906102e49190613e63565b61141c565b005b6103056004803603810190610300919061383c565b61163c565b6040516103129190614a9e565b60405180910390f35b61032361198b565b6040516103309190614a9e565b60405180910390f35b610341611a74565b60405161034e9190614a9e565b60405180910390f35b610371600480360381019061036c91906138a1565b611cb0565b005b61038d60048036038101906103889190613c2c565b611cd2565b005b6103a960048036038101906103a49190613e22565b611e53565b6040516103b7929190614a67565b60405180910390f35b6103da60048036038101906103d59190613cf8565b61234c565b6040516103e79190614af7565b60405180910390f35b61040a60048036038101906104059190613a1f565b612368565b005b61042660048036038101906104219190613e22565b6123a3565b604051610437959493929190614e08565b60405180910390f35b61045a60048036038101906104559190613ecf565b6124b4565b6040516104679190614b6b565b60405180910390f35b61048a60048036038101906104859190613865565b61256d565b6040516104979190614b50565b60405180910390f35b6104ba60048036038101906104b59190613ac6565b612601565b005b60008073ffffffffffffffffffffffffffffffffffffffff168373ffffffffffffffffffffffffffffffffffffffff16141561052d576040517f08c379a000000000000000000000000000000000000000000000000000000000815260040161052490614bed565b60405180910390fd5b6001600083815260200190815260200160002060008473ffffffffffffffffffffffffffffffffffffffff1673ffffffffffffffffffffffffffffffffffffffff16815260200190815260200160002054905092915050565b6000806000837bffffffffffffffffffffffffffffffffffffffffffffffffffffffff19167bffffffffffffffffffffffffffffffffffffffffffffffffffffffff1916815260200190815260200160002060009054906101000a900460ff169050919050565b843373ffffffffffffffffffffffffffffffffffffffff168173ffffffffffffffffffffffffffffffffffffffff16148061062e575061062d813361256d565b5b61066d576040517f08c379a000000000000000000000000000000000000000000000000000000000815260040161066490614dcd565b60405180910390fd5b82518551146106b1576040517f08c379a00000000000000000000000000000000000000000000000000000000081526004016106a890614bcd565b60405180910390fd5b6106ba84612944565b6106f9576040517f08c379a00000000000000000000000000000000000000000000000000000000081526004016106f090614c6d565b60405180910390fd5b61070284612971565b15610742576040517f08c379a000000000000000000000000000000000000000000000000000000000815260040161073990614c2d565b60405180910390fd5b61074b836129c1565b61078a576040517f08c379a000000000000000000000000000000000000000000000000000000000815260040161078190614d2d565b60405180910390fd5b600160048560405161079c9190614977565b908152602001604051809103902060010160146101000a81548160ff021916908360018111156107c857fe5b021790555060005b85518110156108195761080c878783815181106107e957fe5b6020026020010151878785815181106107fe57fe5b602002602001015187612368565b80806001019150506107d0565b50505050505050565b606060038054600181600116156101000203166002900480601f0160208091040260200160405190810160405280929190818152602001828054600181600116156101000203166002900480156108ba5780601f1061088f576101008083540402835291602001916108ba565b820191906000526020600020905b81548152906001019060200180831161089d57829003601f168201915b50505050509050919050565b60606004826040516108d89190614977565b908152602001604051809103902060010160009054906101000a900473ffffffffffffffffffffffffffffffffffffffff163373ffffffffffffffffffffffffffffffffffffffff168173ffffffffffffffffffffffffffffffffffffffff16148061094a5750610949813361256d565b5b610989576040517f08c379a000000000000000000000000000000000000000000000000000000000815260040161098090614dcd565b60405180910390fd5b6004836040516109999190614977565b90815260200160405180910390206003018054600181600116156101000203166002900480601f016020809104026020016040519081016040528092919081815260200182805460018160011615610100020316600290048015610a3e5780601f10610a1357610100808354040283529160200191610a3e565b820191906000526020600020905b815481529060010190602001808311610a2157829003601f168201915b5050505050915050919050565b6000610a7883600484604051610a619190614977565b9081526020016040518091039020600001546104bc565b905092915050565b8151835114610ac4576040517f08c379a0000000000000000000000000000000000000000000000000000000008152600401610abb90614d8d565b60405180910390fd5b600073ffffffffffffffffffffffffffffffffffffffff168473ffffffffffffffffffffffffffffffffffffffff161415610b34576040517f08c379a0000000000000000000000000000000000000000000000000000000008152600401610b2b90614ced565b60405180910390fd5b610b3c612a07565b73ffffffffffffffffffffffffffffffffffffffff168573ffffffffffffffffffffffffffffffffffffffff161480610b825750610b8185610b7c612a07565b61256d565b5b610bc1576040517f08c379a0000000000000000000000000000000000000000000000000000000008152600401610bb890614d0d565b60405180910390fd5b6000610bcb612a07565b9050610bdb818787878787612a0f565b60005b8451811015610dac576000858281518110610bf557fe5b602002602001015190506000858381518110610c0d57fe5b60200260200101519050610c94816040518060600160405280602a81526020016152b5602a91396001600086815260200190815260200160002060008d73ffffffffffffffffffffffffffffffffffffffff1673ffffffffffffffffffffffffffffffffffffffff16815260200190815260200160002054612c7e9092919063ffffffff16565b6001600084815260200190815260200160002060008b73ffffffffffffffffffffffffffffffffffffffff1673ffffffffffffffffffffffffffffffffffffffff16815260200190815260200160002081905550610d4b816001600085815260200190815260200160002060008b73ffffffffffffffffffffffffffffffffffffffff1673ffffffffffffffffffffffffffffffffffffffff16815260200190815260200160002054612cd990919063ffffffff16565b6001600084815260200190815260200160002060008a73ffffffffffffffffffffffffffffffffffffffff1673ffffffffffffffffffffffffffffffffffffffff168152602001908152602001600020819055505050806001019050610bde565b508473ffffffffffffffffffffffffffffffffffffffff168673ffffffffffffffffffffffffffffffffffffffff168273ffffffffffffffffffffffffffffffffffffffff167f4a39dc06d4c0dbc64b70af90fd698a233a518aa5d07e595d983b8c0526c8f7fb8787604051610e23929190614b19565b60405180910390a4610e39818787878787612d2e565b505050505050565b60608151835114610e87576040517f08c379a0000000000000000000000000000000000000000000000000000000008152600401610e7e90614d6d565b60405180910390fd5b6060835167ffffffffffffffff81118015610ea157600080fd5b50604051908082528060200260200182016040528015610ed05781602001602082028036833780820191505090505b50905060005b8451811015610ffc57600073ffffffffffffffffffffffffffffffffffffffff16858281518110610f0357fe5b602002602001015173ffffffffffffffffffffffffffffffffffffffff161415610f62576040517f08c379a0000000000000000000000000000000000000000000000000000000008152600401610f5990614c0d565b60405180910390fd5b60016000858381518110610f7257fe5b602002602001015181526020019081526020016000206000868381518110610f9657fe5b602002602001015173ffffffffffffffffffffffffffffffffffffffff1673ffffffffffffffffffffffffffffffffffffffff16815260200190815260200160002054828281518110610fe557fe5b602002602001018181525050806001019050610ed6565b508091505092915050565b6060803373ffffffffffffffffffffffffffffffffffffffff168373ffffffffffffffffffffffffffffffffffffffff1614611078576040517f08c379a000000000000000000000000000000000000000000000000000000000815260040161106f90614c4d565b60405180910390fd5b606060058054905067ffffffffffffffff8111801561109657600080fd5b506040519080825280602002602001820160405280156110ca57816020015b60608152602001906001900390816110b55790505b5090506000805b600580549050811015611304576001808111156110ea57fe5b6004600583815481106110f957fe5b90600052602060002001604051611110919061498e565b908152602001604051809103902060010160149054906101000a900460ff16600181111561113a57fe5b1480156111d85750600660008773ffffffffffffffffffffffffffffffffffffffff1673ffffffffffffffffffffffffffffffffffffffff168152602001908152602001600020600060046005848154811061119257fe5b906000526020600020016040516111a9919061498e565b908152602001604051809103902060000154815260200190815260200160002060009054906101000a900460ff165b801561122457506000611222876004600585815481106111f457fe5b9060005260206000200160405161120b919061498e565b9081526020016040518091039020600001546104bc565b115b156112f7576005818154811061123657fe5b906000526020600020018054600181600116156101000203166002900480601f0160208091040260200160405190810160405280929190818152602001828054600181600116156101000203166002900480156112d45780601f106112a9576101008083540402835291602001916112d4565b820191906000526020600020905b8154815290600101906020018083116112b757829003601f168201915b50505050508383806001019450815181106112eb57fe5b60200260200101819052505b80806001019150506110d1565b508067ffffffffffffffff8111801561131c57600080fd5b5060405190808252806020026020018201604052801561135057816020015b606081526020019060019003908161133b5790505b5093508067ffffffffffffffff8111801561136a57600080fd5b506040519080825280602002602001820160405280156113995781602001602082028036833780820191505090505b50925060005b81811015611414578281815181106113b357fe5b60200260200101518582815181106113c757fe5b60200260200101819052506113ef868483815181106113e257fe5b6020026020010151610a4b565b8482815181106113fb57fe5b602002602001018181525050808060010191505061139f565b505050915091565b61142582612944565b15611465576040517f08c379a000000000000000000000000000000000000000000000000000000000815260040161145c90614ccd565b60405180910390fd5b6005829080600181540180825580915050600190039060005260206000200160009091909190915090805190602001906114a09291906133f8565b5060606114ab613478565b6040518060c0016040528060058054905081526020013373ffffffffffffffffffffffffffffffffffffffff168152602001600060018111156114ea57fe5b81526020016103e88152602001848152602001838152509050806004856040516115149190614977565b90815260200160405180910390206000820151816000015560208201518160010160006101000a81548173ffffffffffffffffffffffffffffffffffffffff021916908373ffffffffffffffffffffffffffffffffffffffff16021790555060408201518160010160146101000a81548160ff0219169083600181111561159757fe5b02179055506060820151816002015560808201518160030190805190602001906115c29291906133f8565b5060a08201518160040190805190602001906115df9291906134cf565b50905050836007600083600001518152602001908152602001600020908051906020019061160e9291906133f8565b5061163681602001518260000151836060015160405180602001604052806000815250612efe565b50505050565b6060813373ffffffffffffffffffffffffffffffffffffffff168173ffffffffffffffffffffffffffffffffffffffff16148061167f575061167e813361256d565b5b6116be576040517f08c379a00000000000000000000000000000000000000000000000000000000081526004016116b590614dcd565b60405180910390fd5b606060058054905067ffffffffffffffff811180156116dc57600080fd5b5060405190808252806020026020018201604052801561171057816020015b60608152602001906001900390816116fb5790505b5090506000805b6005805490508110156118f0576000600181111561173157fe5b60046005838154811061174057fe5b90600052602060002001604051611757919061498e565b908152602001604051809103902060010160149054906101000a900460ff16600181111561178157fe5b14801561181057508573ffffffffffffffffffffffffffffffffffffffff166004600583815481106117af57fe5b906000526020600020016040516117c6919061498e565b908152602001604051809103902060010160009054906101000a900473ffffffffffffffffffffffffffffffffffffffff1673ffffffffffffffffffffffffffffffffffffffff16145b156118e3576005818154811061182257fe5b906000526020600020018054600181600116156101000203166002900480601f0160208091040260200160405190810160405280929190818152602001828054600181600116156101000203166002900480156118c05780601f10611895576101008083540402835291602001916118c0565b820191906000526020600020905b8154815290600101906020018083116118a357829003601f168201915b50505050508383806001019450815181106118d757fe5b60200260200101819052505b8080600101915050611717565b508067ffffffffffffffff8111801561190857600080fd5b5060405190808252806020026020018201604052801561193c57816020015b60608152602001906001900390816119275790505b50935060005b818110156119825782818151811061195657fe5b602002602001015185828151811061196a57fe5b60200260200101819052508080600101915050611942565b50505050919050565b60606005805480602002602001604051908101604052809291908181526020016000905b82821015611a6b578382906000526020600020018054600181600116156101000203166002900480601f016020809104026020016040519081016040528092919081815260200182805460018160011615610100020316600290048015611a575780601f10611a2c57610100808354040283529160200191611a57565b820191906000526020600020905b815481529060010190602001808311611a3a57829003601f168201915b5050505050815260200190600101906119af565b50505050905090565b60608060058054905067ffffffffffffffff81118015611a9357600080fd5b50604051908082528060200260200182016040528015611ac757816020015b6060815260200190600190039081611ab25790505b5090506000805b600580549050811015611c1857600180811115611ae757fe5b600460058381548110611af657fe5b90600052602060002001604051611b0d919061498e565b908152602001604051809103902060010160149054906101000a900460ff166001811115611b3757fe5b1415611c0b5760058181548110611b4a57fe5b906000526020600020018054600181600116156101000203166002900480601f016020809104026020016040519081016040528092919081815260200182805460018160011615610100020316600290048015611be85780601f10611bbd57610100808354040283529160200191611be8565b820191906000526020600020905b815481529060010190602001808311611bcb57829003601f168201915b5050505050838380600101945081518110611bff57fe5b60200260200101819052505b8080600101915050611ace565b508067ffffffffffffffff81118015611c3057600080fd5b50604051908082528060200260200182016040528015611c6457816020015b6060815260200190600190039081611c4f5790505b50925060005b81811015611caa57828181518110611c7e57fe5b6020026020010151848281518110611c9257fe5b60200260200101819052508080600101915050611c6a565b50505090565b6060611cbb846130e5565b9050611cca8686838686610a80565b505050505050565b8173ffffffffffffffffffffffffffffffffffffffff16611cf1612a07565b73ffffffffffffffffffffffffffffffffffffffff161415611d48576040517f08c379a0000000000000000000000000000000000000000000000000000000008152600401611d3f90614d4d565b60405180910390fd5b8060026000611d55612a07565b73ffffffffffffffffffffffffffffffffffffffff1673ffffffffffffffffffffffffffffffffffffffff16815260200190815260200160002060008473ffffffffffffffffffffffffffffffffffffffff1673ffffffffffffffffffffffffffffffffffffffff16815260200190815260200160002060006101000a81548160ff0219169083151502179055508173ffffffffffffffffffffffffffffffffffffffff16611e02612a07565b73ffffffffffffffffffffffffffffffffffffffff167f17307eab39ab6107e8899845ad3d59bd9653f200f220920489ca2b5937696c3183604051611e479190614b50565b60405180910390a35050565b606080611e5f83612944565b611e9e576040517f08c379a0000000000000000000000000000000000000000000000000000000008152600401611e9590614c6d565b60405180910390fd5b611ea6613478565b600484604051611eb69190614977565b90815260200160405180910390206040518060c0016040529081600082015481526020016001820160009054906101000a900473ffffffffffffffffffffffffffffffffffffffff1673ffffffffffffffffffffffffffffffffffffffff1673ffffffffffffffffffffffffffffffffffffffff1681526020016001820160149054906101000a900460ff166001811115611f4d57fe5b6001811115611f5857fe5b815260200160028201548152602001600382018054600181600116156101000203166002900480601f016020809104026020016040519081016040528092919081815260200182805460018160011615610100020316600290048015611fff5780601f10611fd457610100808354040283529160200191611fff565b820191906000526020600020905b815481529060010190602001808311611fe257829003601f168201915b505050505081526020016004820180548060200260200160405190810160405280929190818152602001828054801561208d57602002820191906000526020600020905b8160009054906101000a900473ffffffffffffffffffffffffffffffffffffffff1673ffffffffffffffffffffffffffffffffffffffff1681526020019060010190808311612043575b505050505081525050905060608160a001515167ffffffffffffffff811180156120b657600080fd5b506040519080825280602002602001820160405280156120e55781602001602082028036833780820191505090505b50905060608260a001515167ffffffffffffffff8111801561210657600080fd5b506040519080825280602002602001820160405280156121355781602001602082028036833780820191505090505b5090506000805b8460a001515181101561220557600061216c8660a00151838151811061215e57fe5b60200260200101518a610a4b565b905060008111156121f7578560a00151828151811061218757fe5b602002602001015185848151811061219b57fe5b602002602001019073ffffffffffffffffffffffffffffffffffffffff16908173ffffffffffffffffffffffffffffffffffffffff1681525050808484815181106121e257fe5b60200260200101818152505082806001019350505b50808060010191505061213c565b5060608167ffffffffffffffff8111801561221f57600080fd5b5060405190808252806020026020018201604052801561224e5781602001602082028036833780820191505090505b50905060608267ffffffffffffffff8111801561226a57600080fd5b506040519080825280602002602001820160405280156122995781602001602082028036833780820191505090505b50905060005b8381101561233a578581815181106122b357fe5b60200260200101518382815181106122c757fe5b602002602001019073ffffffffffffffffffffffffffffffffffffffff16908173ffffffffffffffffffffffffffffffffffffffff168152505084818151811061230d57fe5b602002602001015182828151811061232157fe5b602002602001018181525050808060010191505061229f565b50818197509750505050505050915091565b60606123608361235b846130e5565b610e41565b905092915050565b600060048460405161237a9190614977565b908152602001604051809103902060000154905061239b8686838686612601565b505050505050565b6004818051602081018201805184825260208301602085012081835280955050505050506000915090508060000154908060010160009054906101000a900473ffffffffffffffffffffffffffffffffffffffff16908060010160149054906101000a900460ff1690806002015490806003018054600181600116156101000203166002900480601f0160208091040260200160405190810160405280929190818152602001828054600181600116156101000203166002900480156124aa5780601f1061247f576101008083540402835291602001916124aa565b820191906000526020600020905b81548152906001019060200180831161248d57829003601f168201915b5050505050905085565b600581815481106124c157fe5b906000526020600020016000915090508054600181600116156101000203166002900480601f0160208091040260200160405190810160405280929190818152602001828054600181600116156101000203166002900480156125655780601f1061253a57610100808354040283529160200191612565565b820191906000526020600020905b81548152906001019060200180831161254857829003601f168201915b505050505081565b6000600260008473ffffffffffffffffffffffffffffffffffffffff1673ffffffffffffffffffffffffffffffffffffffff16815260200190815260200160002060008373ffffffffffffffffffffffffffffffffffffffff1673ffffffffffffffffffffffffffffffffffffffff16815260200190815260200160002060009054906101000a900460ff16905092915050565b600073ffffffffffffffffffffffffffffffffffffffff168473ffffffffffffffffffffffffffffffffffffffff161415612671576040517f08c379a000000000000000000000000000000000000000000000000000000000815260040161266890614ced565b60405180910390fd5b612679612a07565b73ffffffffffffffffffffffffffffffffffffffff168573ffffffffffffffffffffffffffffffffffffffff1614806126bf57506126be856126b9612a07565b61256d565b5b6126fe576040517f08c379a00000000000000000000000000000000000000000000000000000000081526004016126f590614cad565b60405180910390fd5b6000612708612a07565b90506127288187876127198861319d565b6127228861319d565b87612a0f565b6127a5836040518060600160405280602a81526020016152b5602a91396001600088815260200190815260200160002060008a73ffffffffffffffffffffffffffffffffffffffff1673ffffffffffffffffffffffffffffffffffffffff16815260200190815260200160002054612c7e9092919063ffffffff16565b6001600086815260200190815260200160002060008873ffffffffffffffffffffffffffffffffffffffff1673ffffffffffffffffffffffffffffffffffffffff1681526020019081526020016000208190555061285c836001600087815260200190815260200160002060008873ffffffffffffffffffffffffffffffffffffffff1673ffffffffffffffffffffffffffffffffffffffff16815260200190815260200160002054612cd990919063ffffffff16565b6001600086815260200190815260200160002060008773ffffffffffffffffffffffffffffffffffffffff1673ffffffffffffffffffffffffffffffffffffffff168152602001908152602001600020819055508473ffffffffffffffffffffffffffffffffffffffff168673ffffffffffffffffffffffffffffffffffffffff168273ffffffffffffffffffffffffffffffffffffffff167fc3d58168c5ae7397731d063d5bbf3d657854427343f4c083240f7aacaa2d0f628787604051612926929190614e62565b60405180910390a461293c81878787878761320d565b505050505050565b6000806004836040516129579190614977565b908152602001604051809103902060000154119050919050565b600060018081111561297f57fe5b60048360405161298f9190614977565b908152602001604051809103902060010160149054906101000a900460ff1660018111156129b957fe5b149050919050565b6000806000905060005b83518110156129f9578381815181106129e057fe5b60200260200101518201915080806001019150506129cb565b506103e88114915050919050565b600033905090565b612a1d8686868686866133dd565b60005b8351811015612c755760011515600660008773ffffffffffffffffffffffffffffffffffffffff1673ffffffffffffffffffffffffffffffffffffffff1681526020019081526020016000206000868481518110612a7a57fe5b6020026020010151815260200190815260200160002060009054906101000a900460ff16151514612c6857606060076000868481518110612ab757fe5b602002602001015181526020019081526020016000208054600181600116156101000203166002900480601f016020809104026020016040519081016040528092919081815260200182805460018160011615610100020316600290048015612b615780601f10612b3657610100808354040283529160200191612b61565b820191906000526020600020905b815481529060010190602001808311612b4457829003601f168201915b50505050509050600481604051612b789190614977565b9081526020016040518091039020600401869080600181540180825580915050600190039060005260206000200160009091909190916101000a81548173ffffffffffffffffffffffffffffffffffffffff021916908373ffffffffffffffffffffffffffffffffffffffff1602179055506001600660008873ffffffffffffffffffffffffffffffffffffffff1673ffffffffffffffffffffffffffffffffffffffff1681526020019081526020016000206000878581518110612c3957fe5b6020026020010151815260200190815260200160002060006101000a81548160ff021916908315150217905550505b8080600101915050612a20565b50505050505050565b6000838311158290612cc6576040517f08c379a0000000000000000000000000000000000000000000000000000000008152600401612cbd9190614b6b565b60405180910390fd5b5060008385039050809150509392505050565b600080828401905083811015612d24576040517f08c379a0000000000000000000000000000000000000000000000000000000008152600401612d1b90614c8d565b60405180910390fd5b8091505092915050565b612d4d8473ffffffffffffffffffffffffffffffffffffffff166133e5565b15612ef6578373ffffffffffffffffffffffffffffffffffffffff1663bc197c8187878686866040518663ffffffff1660e01b8152600401612d939594939291906149a5565b602060405180830381600087803b158015612dad57600080fd5b505af1925050508015612dde57506040513d601f19601f82011682018060405250810190612ddb9190613df9565b60015b612e6d57612dea615195565b80612df55750612e32565b806040517f08c379a0000000000000000000000000000000000000000000000000000000008152600401612e299190614b6b565b60405180910390fd5b6040517f08c379a0000000000000000000000000000000000000000000000000000000008152600401612e6490614b8d565b60405180910390fd5b63bc197c8160e01b7bffffffffffffffffffffffffffffffffffffffffffffffffffffffff1916817bffffffffffffffffffffffffffffffffffffffffffffffffffffffff191614612ef4576040517f08c379a0000000000000000000000000000000000000000000000000000000008152600401612eeb90614bad565b60405180910390fd5b505b505050505050565b600073ffffffffffffffffffffffffffffffffffffffff168473ffffffffffffffffffffffffffffffffffffffff161415612f6e576040517f08c379a0000000000000000000000000000000000000000000000000000000008152600401612f6590614dad565b60405180910390fd5b6000612f78612a07565b9050612f9981600087612f8a8861319d565b612f938861319d565b87612a0f565b612ffc836001600087815260200190815260200160002060008873ffffffffffffffffffffffffffffffffffffffff1673ffffffffffffffffffffffffffffffffffffffff16815260200190815260200160002054612cd990919063ffffffff16565b6001600086815260200190815260200160002060008773ffffffffffffffffffffffffffffffffffffffff1673ffffffffffffffffffffffffffffffffffffffff168152602001908152602001600020819055508473ffffffffffffffffffffffffffffffffffffffff16600073ffffffffffffffffffffffffffffffffffffffff168273ffffffffffffffffffffffffffffffffffffffff167fc3d58168c5ae7397731d063d5bbf3d657854427343f4c083240f7aacaa2d0f6287876040516130c7929190614e62565b60405180910390a46130de8160008787878761320d565b5050505050565b6060815167ffffffffffffffff811180156130ff57600080fd5b5060405190808252806020026020018201604052801561312e5781602001602082028036833780820191505090505b50905060005b825181101561319757600483828151811061314b57fe5b60200260200101516040516131609190614977565b90815260200160405180910390206000015482828151811061317e57fe5b6020026020010181815250508080600101915050613134565b50919050565b606080600167ffffffffffffffff811180156131b857600080fd5b506040519080825280602002602001820160405280156131e75781602001602082028036833780820191505090505b50905082816000815181106131f857fe5b60200260200101818152505080915050919050565b61322c8473ffffffffffffffffffffffffffffffffffffffff166133e5565b156133d5578373ffffffffffffffffffffffffffffffffffffffff1663f23a6e6187878686866040518663ffffffff1660e01b8152600401613272959493929190614a0d565b602060405180830381600087803b15801561328c57600080fd5b505af19250505080156132bd57506040513d601f19601f820116820180604052508101906132ba9190613df9565b60015b61334c576132c9615195565b806132d45750613311565b806040517f08c379a00000000000000000000000000000000000000000000000000000000081526004016133089190614b6b565b60405180910390fd5b6040517f08c379a000000000000000000000000000000000000000000000000000000000815260040161334390614b8d565b60405180910390fd5b63f23a6e6160e01b7bffffffffffffffffffffffffffffffffffffffffffffffffffffffff1916817bffffffffffffffffffffffffffffffffffffffffffffffffffffffff1916146133d3576040517f08c379a00000000000000000000000000000000000000000000000000000000081526004016133ca90614bad565b60405180910390fd5b505b505050505050565b505050505050565b600080823b905060008111915050919050565b828054600181600116156101000203166002900490600052602060002090601f016020900481019282601f1061343957805160ff1916838001178555613467565b82800160010185558215613467579182015b8281111561346657825182559160200191906001019061344b565b5b5090506134749190613559565b5090565b6040518060c0016040528060008152602001600073ffffffffffffffffffffffffffffffffffffffff168152602001600060018111156134b457fe5b81526020016000815260200160608152602001606081525090565b828054828255906000526020600020908101928215613548579160200282015b828111156135475782518260006101000a81548173ffffffffffffffffffffffffffffffffffffffff021916908373ffffffffffffffffffffffffffffffffffffffff160217905550916020019190600101906134ef565b5b5090506135559190613576565b5090565b5b8082111561357257600081600090555060010161355a565b5090565b5b808211156135ad57600081816101000a81549073ffffffffffffffffffffffffffffffffffffffff021916905550600101613577565b5090565b6000813590506135c081615258565b92915050565b600082601f8301126135d757600080fd5b81356135ea6135e582614eb8565b614e8b565b9150818183526020840193506020810190508385602084028201111561360f57600080fd5b60005b8381101561363f578161362588826135b1565b845260208401935060208301925050600181019050613612565b5050505092915050565b600082601f83011261365a57600080fd5b813561366d61366882614ee0565b614e8b565b9150818183526020840193506020810190508360005b838110156136b3578135860161369988826137d3565b845260208401935060208301925050600181019050613683565b5050505092915050565b600082601f8301126136ce57600080fd5b81356136e16136dc82614f08565b614e8b565b9150818183526020840193506020810190508385602084028201111561370657600080fd5b60005b83811015613736578161371c8882613827565b845260208401935060208301925050600181019050613709565b5050505092915050565b60008135905061374f8161526f565b92915050565b60008135905061376481615286565b92915050565b60008151905061377981615286565b92915050565b600082601f83011261379057600080fd5b81356137a361379e82614f30565b614e8b565b915080825260208301602083018583830111156137bf57600080fd5b6137ca838284615135565b50505092915050565b600082601f8301126137e457600080fd5b81356137f76137f282614f5c565b614e8b565b9150808252602083016020830185838301111561381357600080fd5b61381e838284615135565b50505092915050565b6000813590506138368161529d565b92915050565b60006020828403121561384e57600080fd5b600061385c848285016135b1565b91505092915050565b6000806040838503121561387857600080fd5b6000613886858286016135b1565b9250506020613897858286016135b1565b9150509250929050565b600080600080600060a086880312156138b957600080fd5b60006138c7888289016135b1565b95505060206138d8888289016135b1565b945050604086013567ffffffffffffffff8111156138f557600080fd5b61390188828901613649565b935050606086013567ffffffffffffffff81111561391e57600080fd5b61392a888289016136bd565b925050608086013567ffffffffffffffff81111561394757600080fd5b6139538882890161377f565b9150509295509295909350565b600080600080600060a0868803121561397857600080fd5b6000613986888289016135b1565b9550506020613997888289016135b1565b945050604086013567ffffffffffffffff8111156139b457600080fd5b6139c0888289016136bd565b935050606086013567ffffffffffffffff8111156139dd57600080fd5b6139e9888289016136bd565b925050608086013567ffffffffffffffff811115613a0657600080fd5b613a128882890161377f565b9150509295509295909350565b600080600080600060a08688031215613a3757600080fd5b6000613a45888289016135b1565b9550506020613a56888289016135b1565b945050604086013567ffffffffffffffff811115613a7357600080fd5b613a7f888289016137d3565b9350506060613a9088828901613827565b925050608086013567ffffffffffffffff811115613aad57600080fd5b613ab98882890161377f565b9150509295509295909350565b600080600080600060a08688031215613ade57600080fd5b6000613aec888289016135b1565b9550506020613afd888289016135b1565b9450506040613b0e88828901613827565b9350506060613b1f88828901613827565b925050608086013567ffffffffffffffff811115613b3c57600080fd5b613b488882890161377f565b9150509295509295909350565b600080600080600060a08688031215613b6d57600080fd5b6000613b7b888289016135b1565b955050602086013567ffffffffffffffff811115613b9857600080fd5b613ba4888289016135c6565b945050604086013567ffffffffffffffff811115613bc157600080fd5b613bcd888289016137d3565b935050606086013567ffffffffffffffff811115613bea57600080fd5b613bf6888289016136bd565b925050608086013567ffffffffffffffff811115613c1357600080fd5b613c1f8882890161377f565b9150509295509295909350565b60008060408385031215613c3f57600080fd5b6000613c4d858286016135b1565b9250506020613c5e85828601613740565b9150509250929050565b60008060408385031215613c7b57600080fd5b6000613c89858286016135b1565b925050602083013567ffffffffffffffff811115613ca657600080fd5b613cb2858286016137d3565b9150509250929050565b60008060408385031215613ccf57600080fd5b6000613cdd858286016135b1565b9250506020613cee85828601613827565b9150509250929050565b60008060408385031215613d0b57600080fd5b600083013567ffffffffffffffff811115613d2557600080fd5b613d31858286016135c6565b925050602083013567ffffffffffffffff811115613d4e57600080fd5b613d5a85828601613649565b9150509250929050565b60008060408385031215613d7757600080fd5b600083013567ffffffffffffffff811115613d9157600080fd5b613d9d858286016135c6565b925050602083013567ffffffffffffffff811115613dba57600080fd5b613dc6858286016136bd565b9150509250929050565b600060208284031215613de257600080fd5b6000613df084828501613755565b91505092915050565b600060208284031215613e0b57600080fd5b6000613e198482850161376a565b91505092915050565b600060208284031215613e3457600080fd5b600082013567ffffffffffffffff811115613e4e57600080fd5b613e5a848285016137d3565b91505092915050565b60008060408385031215613e7657600080fd5b600083013567ffffffffffffffff811115613e9057600080fd5b613e9c858286016137d3565b925050602083013567ffffffffffffffff811115613eb957600080fd5b613ec5858286016137d3565b9150509250929050565b600060208284031215613ee157600080fd5b6000613eef84828501613827565b91505092915050565b6000613f048383613f3c565b60208301905092915050565b6000613f1c83836140e2565b905092915050565b6000613f308383614959565b60208301905092915050565b613f458161509c565b82525050565b613f548161509c565b82525050565b6000613f6582614fcd565b613f6f818561502b565b9350613f7a83614f88565b8060005b83811015613fab578151613f928882613ef8565b9750613f9d83615004565b925050600181019050613f7e565b5085935050505092915050565b6000613fc382614fd8565b613fcd818561503c565b935083602082028501613fdf85614f98565b8060005b8581101561401b5784840389528151613ffc8582613f10565b945061400783615011565b925060208a01995050600181019050613fe3565b50829750879550505050505092915050565b600061403882614fe3565b614042818561504d565b935061404d83614fa8565b8060005b8381101561407e5781516140658882613f24565b97506140708361501e565b925050600181019050614051565b5085935050505092915050565b614094816150ae565b82525050565b60006140a582614fee565b6140af818561505e565b93506140bf818560208601615144565b6140c881615177565b840191505092915050565b6140dc81615123565b82525050565b60006140ed82614ff9565b6140f7818561506f565b9350614107818560208601615144565b61411081615177565b840191505092915050565b600061412682614ff9565b6141308185615080565b9350614140818560208601615144565b61414981615177565b840191505092915050565b600061415f82614ff9565b6141698185615091565b9350614179818560208601615144565b80840191505092915050565b6000815460018116600081146141a257600181146141c75761420b565b607f60028304166141b38187615091565b955060ff198316865280860193505061420b565b600282046141d58187615091565b95506141e085614fb8565b60005b82811015614202578154818901526001820191506020810190506141e3565b82880195505050505b505092915050565b6000614220603483615080565b91507f455243313135353a207472616e7366657220746f206e6f6e204552433131353560008301527f526563656976657220696d706c656d656e7465720000000000000000000000006020830152604082019050919050565b6000614286602883615080565b91507f455243313135353a204552433131353552656365697665722072656a6563746560008301527f6420746f6b656e730000000000000000000000000000000000000000000000006020830152604082019050919050565b60006142ec603083615080565b91507f5245434f52443a205368617265486f6c6465727320616e6420616d6f756e747360008301527f206c656e677468206d69736d61746368000000000000000000000000000000006020830152604082019050919050565b6000614352602b83615080565b91507f455243313135353a2062616c616e636520717565727920666f7220746865207a60008301527f65726f20616464726573730000000000000000000000000000000000000000006020830152604082019050919050565b60006143b8603183615080565b91507f455243313135353a2062617463682062616c616e636520717565727920666f7260008301527f20746865207a65726f20616464726573730000000000000000000000000000006020830152604082019050919050565b600061441e602983615080565b91507f5245434f52443a2053686172657320666f7220417373657420616c6c7265616460008301527f79206469766964656400000000000000000000000000000000000000000000006020830152604082019050919050565b6000614484602d83615080565b91507f5245434f52443a204f6e6c7920616c6c6f776564206279206f776e6572206f6660008301527f20617373657420736861726573000000000000000000000000000000000000006020830152604082019050919050565b60006144ea601c83615080565b91507f5245434f52443a204173736574206e6f74206d696e74656420796574000000006000830152602082019050919050565b600061452a601b83615080565b91507f536166654d6174683a206164646974696f6e206f766572666c6f7700000000006000830152602082019050919050565b600061456a602983615080565b91507f455243313135353a2063616c6c6572206973206e6f74206f776e6572206e6f7260008301527f20617070726f76656400000000000000000000000000000000000000000000006020830152604082019050919050565b60006145d0602883615080565b91507f5245434f52443a2053686172657320666f7220617373657420616c6c7265616460008301527f79206d696e7465640000000000000000000000000000000000000000000000006020830152604082019050919050565b6000614636602583615080565b91507f455243313135353a207472616e7366657220746f20746865207a65726f20616460008301527f64726573730000000000000000000000000000000000000000000000000000006020830152604082019050919050565b600061469c603283615080565b91507f455243313135353a207472616e736665722063616c6c6572206973206e6f742060008301527f6f776e6572206e6f7220617070726f76656400000000000000000000000000006020830152604082019050919050565b6000614702602e83615080565b91507f5245434f52443a20416c6c207368617265732073686f756c642062652064697660008301527f6964656420636f72726563746c790000000000000000000000000000000000006020830152604082019050919050565b6000614768602983615080565b91507f455243313135353a2073657474696e6720617070726f76616c2073746174757360008301527f20666f722073656c6600000000000000000000000000000000000000000000006020830152604082019050919050565b60006147ce602983615080565b91507f455243313135353a206163636f756e747320616e6420696473206c656e67746860008301527f206d69736d6174636800000000000000000000000000000000000000000000006020830152604082019050919050565b6000614834602883615080565b91507f455243313135353a2069647320616e6420616d6f756e7473206c656e6774682060008301527f6d69736d617463680000000000000000000000000000000000000000000000006020830152604082019050919050565b600061489a602183615080565b91507f455243313135353a206d696e7420746f20746865207a65726f2061646472657360008301527f73000000000000000000000000000000000000000000000000000000000000006020830152604082019050919050565b6000614900602b83615080565b91507f455243313135353a2063616c6c6572206973206e6f742063726561746f72206e60008301527f6f7220617070726f7665640000000000000000000000000000000000000000006020830152604082019050919050565b61496281615119565b82525050565b61497181615119565b82525050565b60006149838284614154565b915081905092915050565b600061499a8284614185565b915081905092915050565b600060a0820190506149ba6000830188613f4b565b6149c76020830187613f4b565b81810360408301526149d9818661402d565b905081810360608301526149ed818561402d565b90508181036080830152614a01818461409a565b90509695505050505050565b600060a082019050614a226000830188613f4b565b614a2f6020830187613f4b565b614a3c6040830186614968565b614a496060830185614968565b8181036080830152614a5b818461409a565b90509695505050505050565b60006040820190508181036000830152614a818185613f5a565b90508181036020830152614a95818461402d565b90509392505050565b60006020820190508181036000830152614ab88184613fb8565b905092915050565b60006040820190508181036000830152614ada8185613fb8565b90508181036020830152614aee818461402d565b90509392505050565b60006020820190508181036000830152614b11818461402d565b905092915050565b60006040820190508181036000830152614b33818561402d565b90508181036020830152614b47818461402d565b90509392505050565b6000602082019050614b65600083018461408b565b92915050565b60006020820190508181036000830152614b85818461411b565b905092915050565b60006020820190508181036000830152614ba681614213565b9050919050565b60006020820190508181036000830152614bc681614279565b9050919050565b60006020820190508181036000830152614be6816142df565b9050919050565b60006020820190508181036000830152614c0681614345565b9050919050565b60006020820190508181036000830152614c26816143ab565b9050919050565b60006020820190508181036000830152614c4681614411565b9050919050565b60006020820190508181036000830152614c6681614477565b9050919050565b60006020820190508181036000830152614c86816144dd565b9050919050565b60006020820190508181036000830152614ca68161451d565b9050919050565b60006020820190508181036000830152614cc68161455d565b9050919050565b60006020820190508181036000830152614ce6816145c3565b9050919050565b60006020820190508181036000830152614d0681614629565b9050919050565b60006020820190508181036000830152614d268161468f565b9050919050565b60006020820190508181036000830152614d46816146f5565b9050919050565b60006020820190508181036000830152614d668161475b565b9050919050565b60006020820190508181036000830152614d86816147c1565b9050919050565b60006020820190508181036000830152614da681614827565b9050919050565b60006020820190508181036000830152614dc68161488d565b9050919050565b60006020820190508181036000830152614de6816148f3565b9050919050565b6000602082019050614e026000830184614968565b92915050565b600060a082019050614e1d6000830188614968565b614e2a6020830187613f4b565b614e3760408301866140d3565b614e446060830185614968565b8181036080830152614e56818461411b565b90509695505050505050565b6000604082019050614e776000830185614968565b614e846020830184614968565b9392505050565b6000604051905081810181811067ffffffffffffffff82111715614eae57600080fd5b8060405250919050565b600067ffffffffffffffff821115614ecf57600080fd5b602082029050602081019050919050565b600067ffffffffffffffff821115614ef757600080fd5b602082029050602081019050919050565b600067ffffffffffffffff821115614f1f57600080fd5b602082029050602081019050919050565b600067ffffffffffffffff821115614f4757600080fd5b601f19601f8301169050602081019050919050565b600067ffffffffffffffff821115614f7357600080fd5b601f19601f8301169050602081019050919050565b6000819050602082019050919050565b6000819050602082019050919050565b6000819050602082019050919050565b60008190508160005260206000209050919050565b600081519050919050565b600081519050919050565b600081519050919050565b600081519050919050565b600081519050919050565b6000602082019050919050565b6000602082019050919050565b6000602082019050919050565b600082825260208201905092915050565b600082825260208201905092915050565b600082825260208201905092915050565b600082825260208201905092915050565b600082825260208201905092915050565b600082825260208201905092915050565b600081905092915050565b60006150a7826150f9565b9050919050565b60008115159050919050565b60007fffffffff0000000000000000000000000000000000000000000000000000000082169050919050565b60008190506150f48261524b565b919050565b600073ffffffffffffffffffffffffffffffffffffffff82169050919050565b6000819050919050565b600061512e826150e6565b9050919050565b82818337600083830152505050565b60005b83811015615162578082015181840152602081019050615147565b83811115615171576000848401525b50505050565b6000601f19601f8301169050919050565b60008160e01c9050919050565b600060443d10156151a557615248565b60046000803e6151b6600051615188565b6308c379a081146151c75750615248565b60405160043d036004823e80513d602482011167ffffffffffffffff821117156151f357505050615248565b808201805167ffffffffffffffff811115615212575050505050615248565b8060208301013d850181111561522d57505050505050615248565b61523682615177565b60208401016040528296505050505050505b90565b6002811061525557fe5b50565b6152618161509c565b811461526c57600080fd5b50565b615278816150ae565b811461528357600080fd5b50565b61528f816150ba565b811461529a57600080fd5b50565b6152a681615119565b81146152b157600080fd5b5056fe455243313135353a20696e73756666696369656e742062616c616e636520666f72207472616e73666572a2646970667358221220d33cebabff88d4d2e24f155af77a1bb5571383011bcda84bb67e201296ab779764736f6c63430007000033",
  "linkReferences": {},
  "deployedLinkReferences": {}
}